{"contracts/VariableInterestRateModel.sol":{"VariableInterestRateModel":{"abi":[{"inputs":[{"internalType":"address","name":"_lendingPool","type":"address"}],"stateMutability":"nonpayable","type":"constructor"},{"inputs":[],"name":"baseRateBorrow","outputs":[{"internalType":"uint256","name":"","type":"uint256"}],"stateMutability":"view","type":"function"},{"inputs":[],"name":"baseRateSupply","outputs":[{"internalType":"uint256","name":"","type":"uint256"}],"stateMutability":"view","type":"function"},{"inputs":[{"internalType":"address","name":"token","type":"address"}],"name":"getBorrowRate","outputs":[{"internalType":"uint256","name":"","type":"uint256"}],"stateMutability":"view","type":"function"},{"inputs":[{"internalType":"address","name":"token","type":"address"}],"name":"getSupplyRate","outputs":[{"internalType":"uint256","name":"","type":"uint256"}],"stateMutability":"view","type":"function"},{"inputs":[],"name":"kinkUtilization","outputs":[{"internalType":"uint256","name":"","type":"uint256"}],"stateMutability":"view","type":"function"},{"inputs":[],"name":"lendingPool","outputs":[{"internalType":"contract ILendingPool","name":"","type":"address"}],"stateMutability":"view","type":"function"},{"inputs":[],"name":"multiplierAfterKink","outputs":[{"internalType":"uint256","name":"","type":"uint256"}],"stateMutability":"view","type":"function"},{"inputs":[],"name":"multiplierPerBlock","outputs":[{"internalType":"uint256","name":"","type":"uint256"}],"stateMutability":"view","type":"function"},{"inputs":[],"name":"owner","outputs":[{"internalType":"address","name":"","type":"address"}],"stateMutability":"view","type":"function"},{"inputs":[{"internalType":"address","name":"_lendingPool","type":"address"}],"name":"setLendingPool","outputs":[],"stateMutability":"nonpayable","type":"function"},{"inputs":[{"internalType":"address","name":"","type":"address"}],"name":"tokenConfigs","outputs":[{"internalType":"bool","name":"","type":"bool"}],"stateMutability":"view","type":"function"}],"evm":{"bytecode":{"linkReferences":{},"object":"608060405266470de4df8200006002556000600355660e35fa931a0000600455670b1a2bc2ec500000600555662aa1efb94e000060065534801561004257600080fd5b5060405161060e38038061060e8339810160408190526100619161008f565b600080546001600160a01b039092166001600160a01b031992831617905560018054909116331790556100bf565b6000602082840312156100a157600080fd5b81516001600160a01b03811681146100b857600080fd5b9392505050565b610540806100ce6000396000f3fe608060405234801561001057600080fd5b50600436106100a95760003560e01c806361731a921161007157806361731a92146101245780636b5441a91461012d5780638726bb89146101405780638da5cb5b14610149578063a59a997314610174578063d71275f61461018757600080fd5b8063113aa8b1146100ae57806317e859a5146100c35780631b69dc5f146100df5780631ea437f81461011257806340d8ae361461011b575b600080fd5b6100c16100bc36600461044d565b61019a565b005b6100cc60055481565b6040519081526020015b60405180910390f35b6101026100ed36600461044d565b60076020526000908152604090205460ff1681565b60405190151581526020016100d6565b6100cc60025481565b6100cc60065481565b6100cc60035481565b6100cc61013b36600461044d565b610207565b6100cc60045481565b60015461015c906001600160a01b031681565b6040516001600160a01b0390911681526020016100d6565b60005461015c906001600160a01b031681565b6100cc61019536600461044d565b610329565b6001546001600160a01b031633146101e55760405162461bcd60e51b815260206004820152600a60248201526927b7363c9037bbb732b960b11b604482015260640160405180910390fd5b600080546001600160a01b0319166001600160a01b0392909216919091179055565b6000805460405163fdce864360e01b81526001600160a01b0384811660048301528392169063fdce864390602401602060405180830381865afa158015610252573d6000803e3d6000fd5b505050506040513d601f19601f820116820180604052508101906102769190610476565b604051636b893afb60e11b81526001600160a01b0385166004820152909150600090309063d71275f690602401602060405180830381865afa1580156102c0573d6000803e3d6000fd5b505050506040513d601f19601f820116820180604052508101906102e49190610476565b90506000670de0b6b3a76400006102fb84846104a5565b61030591906104c2565b9050612710610316826123286104a5565b61032091906104c2565b95945050505050565b6000805460405163fdce864360e01b81526001600160a01b0384811660048301528392169063fdce864390602401602060405180830381865afa158015610374573d6000803e3d6000fd5b505050506040513d601f19601f820116820180604052508101906103989190610476565b905060055481116103d857670de0b6b3a7640000600454826103ba91906104a5565b6103c491906104c2565b6002546103d191906104e4565b9392505050565b6000600554826103e891906104f7565b9050670de0b6b3a76400006006548261040191906104a5565b61040b91906104c2565b670de0b6b3a764000060045460055461042491906104a5565b61042e91906104c2565b60025461043b91906104e4565b61044591906104e4565b949350505050565b60006020828403121561045f57600080fd5b81356001600160a01b03811681146103d157600080fd5b60006020828403121561048857600080fd5b5051919050565b634e487b7160e01b600052601160045260246000fd5b80820281158282048414176104bc576104bc61048f565b92915050565b6000826104df57634e487b7160e01b600052601260045260246000fd5b500490565b808201808211156104bc576104bc61048f565b818103818111156104bc576104bc61048f56fea26469706673582212202d9c7e1aa3863d1d060d4d58a8f350a41b94d91456f4d0db915aa22e1b1683bd64736f6c63430008140033","opcodes":"PUSH1 0x80 PUSH1 0x40 MSTORE PUSH7 0x470DE4DF820000 PUSH1 0x2 SSTORE PUSH1 0x0 PUSH1 0x3 SSTORE PUSH7 0xE35FA931A0000 PUSH1 0x4 SSTORE PUSH8 0xB1A2BC2EC500000 PUSH1 0x5 SSTORE PUSH7 0x2AA1EFB94E0000 PUSH1 0x6 SSTORE CALLVALUE DUP1 ISZERO PUSH2 0x42 JUMPI PUSH1 0x0 DUP1 REVERT JUMPDEST POP PUSH1 0x40 MLOAD PUSH2 0x60E CODESIZE SUB DUP1 PUSH2 0x60E DUP4 CODECOPY DUP2 ADD PUSH1 0x40 DUP2 SWAP1 MSTORE PUSH2 0x61 SWAP2 PUSH2 0x8F JUMP JUMPDEST PUSH1 0x0 DUP1 SLOAD PUSH1 0x1 PUSH1 0x1 PUSH1 0xA0 SHL SUB SWAP1 SWAP3 AND PUSH1 0x1 PUSH1 0x1 PUSH1 0xA0 SHL SUB NOT SWAP3 DUP4 AND OR SWAP1 SSTORE PUSH1 0x1 DUP1 SLOAD SWAP1 SWAP2 AND CALLER OR SWAP1 SSTORE PUSH2 0xBF JUMP JUMPDEST PUSH1 0x0 PUSH1 0x20 DUP3 DUP5 SUB SLT ISZERO PUSH2 0xA1 JUMPI PUSH1 0x0 DUP1 REVERT JUMPDEST DUP2 MLOAD PUSH1 0x1 PUSH1 0x1 PUSH1 0xA0 SHL SUB DUP2 AND DUP2 EQ PUSH2 0xB8 JUMPI PUSH1 0x0 DUP1 REVERT JUMPDEST SWAP4 SWAP3 POP POP POP JUMP JUMPDEST PUSH2 0x540 DUP1 PUSH2 0xCE PUSH1 0x0 CODECOPY PUSH1 0x0 RETURN INVALID PUSH1 0x80 PUSH1 0x40 MSTORE CALLVALUE DUP1 ISZERO PUSH2 0x10 JUMPI PUSH1 0x0 DUP1 REVERT JUMPDEST POP PUSH1 0x4 CALLDATASIZE LT PUSH2 0xA9 JUMPI PUSH1 0x0 CALLDATALOAD PUSH1 0xE0 SHR DUP1 PUSH4 0x61731A92 GT PUSH2 0x71 JUMPI DUP1 PUSH4 0x61731A92 EQ PUSH2 0x124 JUMPI DUP1 PUSH4 0x6B5441A9 EQ PUSH2 0x12D JUMPI DUP1 PUSH4 0x8726BB89 EQ PUSH2 0x140 JUMPI DUP1 PUSH4 0x8DA5CB5B EQ PUSH2 0x149 JUMPI DUP1 PUSH4 0xA59A9973 EQ PUSH2 0x174 JUMPI DUP1 PUSH4 0xD71275F6 EQ PUSH2 0x187 JUMPI PUSH1 0x0 DUP1 REVERT JUMPDEST DUP1 PUSH4 0x113AA8B1 EQ PUSH2 0xAE JUMPI DUP1 PUSH4 0x17E859A5 EQ PUSH2 0xC3 JUMPI DUP1 PUSH4 0x1B69DC5F EQ PUSH2 0xDF JUMPI DUP1 PUSH4 0x1EA437F8 EQ PUSH2 0x112 JUMPI DUP1 PUSH4 0x40D8AE36 EQ PUSH2 0x11B JUMPI JUMPDEST PUSH1 0x0 DUP1 REVERT JUMPDEST PUSH2 0xC1 PUSH2 0xBC CALLDATASIZE PUSH1 0x4 PUSH2 0x44D JUMP JUMPDEST PUSH2 0x19A JUMP JUMPDEST STOP JUMPDEST PUSH2 0xCC PUSH1 0x5 SLOAD DUP2 JUMP JUMPDEST PUSH1 0x40 MLOAD SWAP1 DUP2 MSTORE PUSH1 0x20 ADD JUMPDEST PUSH1 0x40 MLOAD DUP1 SWAP2 SUB SWAP1 RETURN JUMPDEST PUSH2 0x102 PUSH2 0xED CALLDATASIZE PUSH1 0x4 PUSH2 0x44D JUMP JUMPDEST PUSH1 0x7 PUSH1 0x20 MSTORE PUSH1 0x0 SWAP1 DUP2 MSTORE PUSH1 0x40 SWAP1 KECCAK256 SLOAD PUSH1 0xFF AND DUP2 JUMP JUMPDEST PUSH1 0x40 MLOAD SWAP1 ISZERO ISZERO DUP2 MSTORE PUSH1 0x20 ADD PUSH2 0xD6 JUMP JUMPDEST PUSH2 0xCC PUSH1 0x2 SLOAD DUP2 JUMP JUMPDEST PUSH2 0xCC PUSH1 0x6 SLOAD DUP2 JUMP JUMPDEST PUSH2 0xCC PUSH1 0x3 SLOAD DUP2 JUMP JUMPDEST PUSH2 0xCC PUSH2 0x13B CALLDATASIZE PUSH1 0x4 PUSH2 0x44D JUMP JUMPDEST PUSH2 0x207 JUMP JUMPDEST PUSH2 0xCC PUSH1 0x4 SLOAD DUP2 JUMP JUMPDEST PUSH1 0x1 SLOAD PUSH2 0x15C SWAP1 PUSH1 0x1 PUSH1 0x1 PUSH1 0xA0 SHL SUB AND DUP2 JUMP JUMPDEST PUSH1 0x40 MLOAD PUSH1 0x1 PUSH1 0x1 PUSH1 0xA0 SHL SUB SWAP1 SWAP2 AND DUP2 MSTORE PUSH1 0x20 ADD PUSH2 0xD6 JUMP JUMPDEST PUSH1 0x0 SLOAD PUSH2 0x15C SWAP1 PUSH1 0x1 PUSH1 0x1 PUSH1 0xA0 SHL SUB AND DUP2 JUMP JUMPDEST PUSH2 0xCC PUSH2 0x195 CALLDATASIZE PUSH1 0x4 PUSH2 0x44D JUMP JUMPDEST PUSH2 0x329 JUMP JUMPDEST PUSH1 0x1 SLOAD PUSH1 0x1 PUSH1 0x1 PUSH1 0xA0 SHL SUB AND CALLER EQ PUSH2 0x1E5 JUMPI PUSH1 0x40 MLOAD PUSH3 0x461BCD PUSH1 0xE5 SHL DUP2 MSTORE PUSH1 0x20 PUSH1 0x4 DUP3 ADD MSTORE PUSH1 0xA PUSH1 0x24 DUP3 ADD MSTORE PUSH10 0x27B7363C9037BBB732B9 PUSH1 0xB1 SHL PUSH1 0x44 DUP3 ADD MSTORE PUSH1 0x64 ADD PUSH1 0x40 MLOAD DUP1 SWAP2 SUB SWAP1 REVERT JUMPDEST PUSH1 0x0 DUP1 SLOAD PUSH1 0x1 PUSH1 0x1 PUSH1 0xA0 SHL SUB NOT AND PUSH1 0x1 PUSH1 0x1 PUSH1 0xA0 SHL SUB SWAP3 SWAP1 SWAP3 AND SWAP2 SWAP1 SWAP2 OR SWAP1 SSTORE JUMP JUMPDEST PUSH1 0x0 DUP1 SLOAD PUSH1 0x40 MLOAD PUSH4 0xFDCE8643 PUSH1 0xE0 SHL DUP2 MSTORE PUSH1 0x1 PUSH1 0x1 PUSH1 0xA0 SHL SUB DUP5 DUP2 AND PUSH1 0x4 DUP4 ADD MSTORE DUP4 SWAP3 AND SWAP1 PUSH4 0xFDCE8643 SWAP1 PUSH1 0x24 ADD PUSH1 0x20 PUSH1 0x40 MLOAD DUP1 DUP4 SUB DUP2 DUP7 GAS STATICCALL ISZERO DUP1 ISZERO PUSH2 0x252 JUMPI RETURNDATASIZE PUSH1 0x0 DUP1 RETURNDATACOPY RETURNDATASIZE PUSH1 0x0 REVERT JUMPDEST POP POP POP POP PUSH1 0x40 MLOAD RETURNDATASIZE PUSH1 0x1F NOT PUSH1 0x1F DUP3 ADD AND DUP3 ADD DUP1 PUSH1 0x40 MSTORE POP DUP2 ADD SWAP1 PUSH2 0x276 SWAP2 SWAP1 PUSH2 0x476 JUMP JUMPDEST PUSH1 0x40 MLOAD PUSH4 0x6B893AFB PUSH1 0xE1 SHL DUP2 MSTORE PUSH1 0x1 PUSH1 0x1 PUSH1 0xA0 SHL SUB DUP6 AND PUSH1 0x4 DUP3 ADD MSTORE SWAP1 SWAP2 POP PUSH1 0x0 SWAP1 ADDRESS SWAP1 PUSH4 0xD71275F6 SWAP1 PUSH1 0x24 ADD PUSH1 0x20 PUSH1 0x40 MLOAD DUP1 DUP4 SUB DUP2 DUP7 GAS STATICCALL ISZERO DUP1 ISZERO PUSH2 0x2C0 JUMPI RETURNDATASIZE PUSH1 0x0 DUP1 RETURNDATACOPY RETURNDATASIZE PUSH1 0x0 REVERT JUMPDEST POP POP POP POP PUSH1 0x40 MLOAD RETURNDATASIZE PUSH1 0x1F NOT PUSH1 0x1F DUP3 ADD AND DUP3 ADD DUP1 PUSH1 0x40 MSTORE POP DUP2 ADD SWAP1 PUSH2 0x2E4 SWAP2 SWAP1 PUSH2 0x476 JUMP JUMPDEST SWAP1 POP PUSH1 0x0 PUSH8 0xDE0B6B3A7640000 PUSH2 0x2FB DUP5 DUP5 PUSH2 0x4A5 JUMP JUMPDEST PUSH2 0x305 SWAP2 SWAP1 PUSH2 0x4C2 JUMP JUMPDEST SWAP1 POP PUSH2 0x2710 PUSH2 0x316 DUP3 PUSH2 0x2328 PUSH2 0x4A5 JUMP JUMPDEST PUSH2 0x320 SWAP2 SWAP1 PUSH2 0x4C2 JUMP JUMPDEST SWAP6 SWAP5 POP POP POP POP POP JUMP JUMPDEST PUSH1 0x0 DUP1 SLOAD PUSH1 0x40 MLOAD PUSH4 0xFDCE8643 PUSH1 0xE0 SHL DUP2 MSTORE PUSH1 0x1 PUSH1 0x1 PUSH1 0xA0 SHL SUB DUP5 DUP2 AND PUSH1 0x4 DUP4 ADD MSTORE DUP4 SWAP3 AND SWAP1 PUSH4 0xFDCE8643 SWAP1 PUSH1 0x24 ADD PUSH1 0x20 PUSH1 0x40 MLOAD DUP1 DUP4 SUB DUP2 DUP7 GAS STATICCALL ISZERO DUP1 ISZERO PUSH2 0x374 JUMPI RETURNDATASIZE PUSH1 0x0 DUP1 RETURNDATACOPY RETURNDATASIZE PUSH1 0x0 REVERT JUMPDEST POP POP POP POP PUSH1 0x40 MLOAD RETURNDATASIZE PUSH1 0x1F NOT PUSH1 0x1F DUP3 ADD AND DUP3 ADD DUP1 PUSH1 0x40 MSTORE POP DUP2 ADD SWAP1 PUSH2 0x398 SWAP2 SWAP1 PUSH2 0x476 JUMP JUMPDEST SWAP1 POP PUSH1 0x5 SLOAD DUP2 GT PUSH2 0x3D8 JUMPI PUSH8 0xDE0B6B3A7640000 PUSH1 0x4 SLOAD DUP3 PUSH2 0x3BA SWAP2 SWAP1 PUSH2 0x4A5 JUMP JUMPDEST PUSH2 0x3C4 SWAP2 SWAP1 PUSH2 0x4C2 JUMP JUMPDEST PUSH1 0x2 SLOAD PUSH2 0x3D1 SWAP2 SWAP1 PUSH2 0x4E4 JUMP JUMPDEST SWAP4 SWAP3 POP POP POP JUMP JUMPDEST PUSH1 0x0 PUSH1 0x5 SLOAD DUP3 PUSH2 0x3E8 SWAP2 SWAP1 PUSH2 0x4F7 JUMP JUMPDEST SWAP1 POP PUSH8 0xDE0B6B3A7640000 PUSH1 0x6 SLOAD DUP3 PUSH2 0x401 SWAP2 SWAP1 PUSH2 0x4A5 JUMP JUMPDEST PUSH2 0x40B SWAP2 SWAP1 PUSH2 0x4C2 JUMP JUMPDEST PUSH8 0xDE0B6B3A7640000 PUSH1 0x4 SLOAD PUSH1 0x5 SLOAD PUSH2 0x424 SWAP2 SWAP1 PUSH2 0x4A5 JUMP JUMPDEST PUSH2 0x42E SWAP2 SWAP1 PUSH2 0x4C2 JUMP JUMPDEST PUSH1 0x2 SLOAD PUSH2 0x43B SWAP2 SWAP1 PUSH2 0x4E4 JUMP JUMPDEST PUSH2 0x445 SWAP2 SWAP1 PUSH2 0x4E4 JUMP JUMPDEST SWAP5 SWAP4 POP POP POP POP JUMP JUMPDEST PUSH1 0x0 PUSH1 0x20 DUP3 DUP5 SUB SLT ISZERO PUSH2 0x45F JUMPI PUSH1 0x0 DUP1 REVERT JUMPDEST DUP2 CALLDATALOAD PUSH1 0x1 PUSH1 0x1 PUSH1 0xA0 SHL SUB DUP2 AND DUP2 EQ PUSH2 0x3D1 JUMPI PUSH1 0x0 DUP1 REVERT JUMPDEST PUSH1 0x0 PUSH1 0x20 DUP3 DUP5 SUB SLT ISZERO PUSH2 0x488 JUMPI PUSH1 0x0 DUP1 REVERT JUMPDEST POP MLOAD SWAP2 SWAP1 POP JUMP JUMPDEST PUSH4 0x4E487B71 PUSH1 0xE0 SHL PUSH1 0x0 MSTORE PUSH1 0x11 PUSH1 0x4 MSTORE PUSH1 0x24 PUSH1 0x0 REVERT JUMPDEST DUP1 DUP3 MUL DUP2 ISZERO DUP3 DUP3 DIV DUP5 EQ OR PUSH2 0x4BC JUMPI PUSH2 0x4BC PUSH2 0x48F JUMP JUMPDEST SWAP3 SWAP2 POP POP JUMP JUMPDEST PUSH1 0x0 DUP3 PUSH2 0x4DF JUMPI PUSH4 0x4E487B71 PUSH1 0xE0 SHL PUSH1 0x0 MSTORE PUSH1 0x12 PUSH1 0x4 MSTORE PUSH1 0x24 PUSH1 0x0 REVERT JUMPDEST POP DIV SWAP1 JUMP JUMPDEST DUP1 DUP3 ADD DUP1 DUP3 GT ISZERO PUSH2 0x4BC JUMPI PUSH2 0x4BC PUSH2 0x48F JUMP JUMPDEST DUP2 DUP2 SUB DUP2 DUP2 GT ISZERO PUSH2 0x4BC JUMPI PUSH2 0x4BC PUSH2 0x48F JUMP INVALID LOG2 PUSH5 0x6970667358 0x22 SLT KECCAK256 0x2D SWAP13 PUSH31 0x1AA3863D1D060D4D58A8F350A41B94D91456F4D0DB915AA22E1B1683BD6473 PUSH16 0x6C634300081400330000000000000000 "},"methodIdentifiers":{"baseRateBorrow()":"1ea437f8","baseRateSupply()":"61731a92","getBorrowRate(address)":"d71275f6","getSupplyRate(address)":"6b5441a9","kinkUtilization()":"17e859a5","lendingPool()":"a59a9973","multiplierAfterKink()":"40d8ae36","multiplierPerBlock()":"8726bb89","owner()":"8da5cb5b","setLendingPool(address)":"113aa8b1","tokenConfigs(address)":"1b69dc5f"}}}}}