{
  "_format": "hh-sol-artifact-1",
  "contractName": "VariableInterestRateModel",
  "sourceName": "contracts/VariableInterestRateModel.sol",
  "abi": [
    {
      "inputs": [
        {
          "internalType": "address",
          "name": "_lendingPool",
          "type": "address"
        }
      ],
      "stateMutability": "nonpayable",
      "type": "constructor"
    },
    {
      "inputs": [],
      "name": "baseRateBorrow",
      "outputs": [
        {
          "internalType": "uint256",
          "name": "",
          "type": "uint256"
        }
      ],
      "stateMutability": "view",
      "type": "function"
    },
    {
      "inputs": [],
      "name": "baseRateSupply",
      "outputs": [
        {
          "internalType": "uint256",
          "name": "",
          "type": "uint256"
        }
      ],
      "stateMutability": "view",
      "type": "function"
    },
    {
      "inputs": [
        {
          "internalType": "address",
          "name": "token",
          "type": "address"
        }
      ],
      "name": "getBorrowRate",
      "outputs": [
        {
          "internalType": "uint256",
          "name": "",
          "type": "uint256"
        }
      ],
      "stateMutability": "view",
      "type": "function"
    },
    {
      "inputs": [
        {
          "internalType": "address",
          "name": "token",
          "type": "address"
        }
      ],
      "name": "getSupplyRate",
      "outputs": [
        {
          "internalType": "uint256",
          "name": "",
          "type": "uint256"
        }
      ],
      "stateMutability": "view",
      "type": "function"
    },
    {
      "inputs": [],
      "name": "kinkUtilization",
      "outputs": [
        {
          "internalType": "uint256",
          "name": "",
          "type": "uint256"
        }
      ],
      "stateMutability": "view",
      "type": "function"
    },
    {
      "inputs": [],
      "name": "lendingPool",
      "outputs": [
        {
          "internalType": "contract ILendingPool",
          "name": "",
          "type": "address"
        }
      ],
      "stateMutability": "view",
      "type": "function"
    },
    {
      "inputs": [],
      "name": "multiplierAfterKink",
      "outputs": [
        {
          "internalType": "uint256",
          "name": "",
          "type": "uint256"
        }
      ],
      "stateMutability": "view",
      "type": "function"
    },
    {
      "inputs": [],
      "name": "multiplierPerBlock",
      "outputs": [
        {
          "internalType": "uint256",
          "name": "",
          "type": "uint256"
        }
      ],
      "stateMutability": "view",
      "type": "function"
    },
    {
      "inputs": [],
      "name": "owner",
      "outputs": [
        {
          "internalType": "address",
          "name": "",
          "type": "address"
        }
      ],
      "stateMutability": "view",
      "type": "function"
    },
    {
      "inputs": [
        {
          "internalType": "address",
          "name": "_lendingPool",
          "type": "address"
        }
      ],
      "name": "setLendingPool",
      "outputs": [],
      "stateMutability": "nonpayable",
      "type": "function"
    },
    {
      "inputs": [
        {
          "internalType": "address",
          "name": "",
          "type": "address"
        }
      ],
      "name": "tokenConfigs",
      "outputs": [
        {
          "internalType": "bool",
          "name": "",
          "type": "bool"
        }
      ],
      "stateMutability": "view",
      "type": "function"
    }
  ],
  "bytecode": "0x608060405266470de4df8200006002556000600355660e35fa931a0000600455670b1a2bc2ec500000600555662aa1efb94e000060065534801561004257600080fd5b5060405161060e38038061060e8339810160408190526100619161008f565b600080546001600160a01b039092166001600160a01b031992831617905560018054909116331790556100bf565b6000602082840312156100a157600080fd5b81516001600160a01b03811681146100b857600080fd5b9392505050565b610540806100ce6000396000f3fe608060405234801561001057600080fd5b50600436106100a95760003560e01c806361731a921161007157806361731a92146101245780636b5441a91461012d5780638726bb89146101405780638da5cb5b14610149578063a59a997314610174578063d71275f61461018757600080fd5b8063113aa8b1146100ae57806317e859a5146100c35780631b69dc5f146100df5780631ea437f81461011257806340d8ae361461011b575b600080fd5b6100c16100bc36600461044d565b61019a565b005b6100cc60055481565b6040519081526020015b60405180910390f35b6101026100ed36600461044d565b60076020526000908152604090205460ff1681565b60405190151581526020016100d6565b6100cc60025481565b6100cc60065481565b6100cc60035481565b6100cc61013b36600461044d565b610207565b6100cc60045481565b60015461015c906001600160a01b031681565b6040516001600160a01b0390911681526020016100d6565b60005461015c906001600160a01b031681565b6100cc61019536600461044d565b610329565b6001546001600160a01b031633146101e55760405162461bcd60e51b815260206004820152600a60248201526927b7363c9037bbb732b960b11b604482015260640160405180910390fd5b600080546001600160a01b0319166001600160a01b0392909216919091179055565b6000805460405163fdce864360e01b81526001600160a01b0384811660048301528392169063fdce864390602401602060405180830381865afa158015610252573d6000803e3d6000fd5b505050506040513d601f19601f820116820180604052508101906102769190610476565b604051636b893afb60e11b81526001600160a01b0385166004820152909150600090309063d71275f690602401602060405180830381865afa1580156102c0573d6000803e3d6000fd5b505050506040513d601f19601f820116820180604052508101906102e49190610476565b90506000670de0b6b3a76400006102fb84846104a5565b61030591906104c2565b9050612710610316826123286104a5565b61032091906104c2565b95945050505050565b6000805460405163fdce864360e01b81526001600160a01b0384811660048301528392169063fdce864390602401602060405180830381865afa158015610374573d6000803e3d6000fd5b505050506040513d601f19601f820116820180604052508101906103989190610476565b905060055481116103d857670de0b6b3a7640000600454826103ba91906104a5565b6103c491906104c2565b6002546103d191906104e4565b9392505050565b6000600554826103e891906104f7565b9050670de0b6b3a76400006006548261040191906104a5565b61040b91906104c2565b670de0b6b3a764000060045460055461042491906104a5565b61042e91906104c2565b60025461043b91906104e4565b61044591906104e4565b949350505050565b60006020828403121561045f57600080fd5b81356001600160a01b03811681146103d157600080fd5b60006020828403121561048857600080fd5b5051919050565b634e487b7160e01b600052601160045260246000fd5b80820281158282048414176104bc576104bc61048f565b92915050565b6000826104df57634e487b7160e01b600052601260045260246000fd5b500490565b808201808211156104bc576104bc61048f565b818103818111156104bc576104bc61048f56fea26469706673582212202d9c7e1aa3863d1d060d4d58a8f350a41b94d91456f4d0db915aa22e1b1683bd64736f6c63430008140033",
  "linkReferences": {},
  "deployedLinkReferences": {}
}