{
  "_format": "hh-sol-artifact-1",
  "contractName": "VariableInterestRateModel",
  "sourceName": "contracts/VariableInterestRateModel.sol",
  "abi": [
    {
      "inputs": [
        {
          "internalType": "address",
          "name": "_lendingPool",
          "type": "address"
        }
      ],
      "stateMutability": "nonpayable",
      "type": "constructor"
    },
    {
      "inputs": [],
      "name": "baseRateBorrow",
      "outputs": [
        {
          "internalType": "uint256",
          "name": "",
          "type": "uint256"
        }
      ],
      "stateMutability": "view",
      "type": "function"
    },
    {
      "inputs": [],
      "name": "baseRateSupply",
      "outputs": [
        {
          "internalType": "uint256",
          "name": "",
          "type": "uint256"
        }
      ],
      "stateMutability": "view",
      "type": "function"
    },
    {
      "inputs": [
        {
          "internalType": "address",
          "name": "token",
          "type": "address"
        }
      ],
      "name": "getBorrowRate",
      "outputs": [
        {
          "internalType": "uint256",
          "name": "",
          "type": "uint256"
        }
      ],
      "stateMutability": "view",
      "type": "function"
    },
    {
      "inputs": [
        {
          "internalType": "address",
          "name": "token",
          "type": "address"
        }
      ],
      "name": "getSupplyRate",
      "outputs": [
        {
          "internalType": "uint256",
          "name": "",
          "type": "uint256"
        }
      ],
      "stateMutability": "view",
      "type": "function"
    },
    {
      "inputs": [],
      "name": "kinkUtilization",
      "outputs": [
        {
          "internalType": "uint256",
          "name": "",
          "type": "uint256"
        }
      ],
      "stateMutability": "view",
      "type": "function"
    },
    {
      "inputs": [],
      "name": "lendingPool",
      "outputs": [
        {
          "internalType": "contract ILendingPool",
          "name": "",
          "type": "address"
        }
      ],
      "stateMutability": "view",
      "type": "function"
    },
    {
      "inputs": [],
      "name": "multiplierAfterKink",
      "outputs": [
        {
          "internalType": "uint256",
          "name": "",
          "type": "uint256"
        }
      ],
      "stateMutability": "view",
      "type": "function"
    },
    {
      "inputs": [],
      "name": "multiplierPerBlock",
      "outputs": [
        {
          "internalType": "uint256",
          "name": "",
          "type": "uint256"
        }
      ],
      "stateMutability": "view",
      "type": "function"
    },
    {
      "inputs": [],
      "name": "owner",
      "outputs": [
        {
          "internalType": "address",
          "name": "",
          "type": "address"
        }
      ],
      "stateMutability": "view",
      "type": "function"
    },
    {
      "inputs": [
        {
          "internalType": "address",
          "name": "_lendingPool",
          "type": "address"
        }
      ],
      "name": "setLendingPool",
      "outputs": [],
      "stateMutability": "nonpayable",
      "type": "function"
    },
    {
      "inputs": [
        {
          "internalType": "address",
          "name": "",
          "type": "address"
        }
      ],
      "name": "tokenConfigs",
      "outputs": [
        {
          "internalType": "bool",
          "name": "",
          "type": "bool"
        }
      ],
      "stateMutability": "view",
      "type": "function"
    }
  ],
  "bytecode": "0x608060405266470de4df8200006002556000600355660e35fa931a0000600455670b1a2bc2ec500000600555662aa1efb94e000060065534801561004257600080fd5b50604051610bae380380610bae8339818101604052810190610064919061014e565b806000806101000a81548173ffffffffffffffffffffffffffffffffffffffff021916908373ffffffffffffffffffffffffffffffffffffffff16021790555033600160006101000a81548173ffffffffffffffffffffffffffffffffffffffff021916908373ffffffffffffffffffffffffffffffffffffffff1602179055505061017b565b600080fd5b600073ffffffffffffffffffffffffffffffffffffffff82169050919050565b600061011b826100f0565b9050919050565b61012b81610110565b811461013657600080fd5b50565b60008151905061014881610122565b92915050565b600060208284031215610164576101636100eb565b5b600061017284828501610139565b91505092915050565b610a248061018a6000396000f3fe608060405234801561001057600080fd5b50600436106100a95760003560e01c806361731a921161007157806361731a92146101545780636b5441a9146101725780638726bb89146101a25780638da5cb5b146101c0578063a59a9973146101de578063d71275f6146101fc576100a9565b8063113aa8b1146100ae57806317e859a5146100ca5780631b69dc5f146100e85780631ea437f81461011857806340d8ae3614610136575b600080fd5b6100c860048036038101906100c391906106a4565b61022c565b005b6100d26102ff565b6040516100df91906106ea565b60405180910390f35b61010260048036038101906100fd91906106a4565b610305565b60405161010f9190610720565b60405180910390f35b610120610325565b60405161012d91906106ea565b60405180910390f35b61013e61032b565b60405161014b91906106ea565b60405180910390f35b61015c610331565b60405161016991906106ea565b60405180910390f35b61018c600480360381019061018791906106a4565b610337565b60405161019991906106ea565b60405180910390f35b6101aa61049c565b6040516101b791906106ea565b60405180910390f35b6101c86104a2565b6040516101d5919061074a565b60405180910390f35b6101e66104c8565b6040516101f391906107c4565b60405180910390f35b610216600480360381019061021191906106a4565b6104ec565b60405161022391906106ea565b60405180910390f35b600160009054906101000a900473ffffffffffffffffffffffffffffffffffffffff1673ffffffffffffffffffffffffffffffffffffffff163373ffffffffffffffffffffffffffffffffffffffff16146102bc576040517f08c379a00000000000000000000000000000000000000000000000000000000081526004016102b39061083c565b60405180910390fd5b806000806101000a81548173ffffffffffffffffffffffffffffffffffffffff021916908373ffffffffffffffffffffffffffffffffffffffff16021790555050565b60055481565b60076020528060005260406000206000915054906101000a900460ff1681565b60025481565b60065481565b60035481565b60008060008054906101000a900473ffffffffffffffffffffffffffffffffffffffff1673ffffffffffffffffffffffffffffffffffffffff1663fdce8643846040518263ffffffff1660e01b8152600401610393919061074a565b602060405180830381865afa1580156103b0573d6000803e3d6000fd5b505050506040513d601f19601f820116820180604052508101906103d49190610888565b905060003073ffffffffffffffffffffffffffffffffffffffff1663d71275f6856040518263ffffffff1660e01b8152600401610411919061074a565b602060405180830381865afa15801561042e573d6000803e3d6000fd5b505050506040513d601f19601f820116820180604052508101906104529190610888565b90506000670de0b6b3a7640000838361046b91906108e4565b6104759190610955565b90506127106123288261048891906108e4565b6104929190610955565b9350505050919050565b60045481565b600160009054906101000a900473ffffffffffffffffffffffffffffffffffffffff1681565b60008054906101000a900473ffffffffffffffffffffffffffffffffffffffff1681565b60008060008054906101000a900473ffffffffffffffffffffffffffffffffffffffff1673ffffffffffffffffffffffffffffffffffffffff1663fdce8643846040518263ffffffff1660e01b8152600401610548919061074a565b602060405180830381865afa158015610565573d6000803e3d6000fd5b505050506040513d601f19601f820116820180604052508101906105899190610888565b905060055481116105ca57670de0b6b3a7640000600454826105ab91906108e4565b6105b59190610955565b6002546105c29190610986565b91505061063c565b6000600554826105da91906109ba565b9050670de0b6b3a7640000600654826105f391906108e4565b6105fd9190610955565b670de0b6b3a764000060045460055461061691906108e4565b6106209190610955565b60025461062d9190610986565b6106379190610986565b925050505b919050565b600080fd5b600073ffffffffffffffffffffffffffffffffffffffff82169050919050565b600061067182610646565b9050919050565b61068181610666565b811461068c57600080fd5b50565b60008135905061069e81610678565b92915050565b6000602082840312156106ba576106b9610641565b5b60006106c88482850161068f565b91505092915050565b6000819050919050565b6106e4816106d1565b82525050565b60006020820190506106ff60008301846106db565b92915050565b60008115159050919050565b61071a81610705565b82525050565b60006020820190506107356000830184610711565b92915050565b61074481610666565b82525050565b600060208201905061075f600083018461073b565b92915050565b6000819050919050565b600061078a61078561078084610646565b610765565b610646565b9050919050565b600061079c8261076f565b9050919050565b60006107ae82610791565b9050919050565b6107be816107a3565b82525050565b60006020820190506107d960008301846107b5565b92915050565b600082825260208201905092915050565b7f4f6e6c79206f776e657200000000000000000000000000000000000000000000600082015250565b6000610826600a836107df565b9150610831826107f0565b602082019050919050565b6000602082019050818103600083015261085581610819565b9050919050565b610865816106d1565b811461087057600080fd5b50565b6000815190506108828161085c565b92915050565b60006020828403121561089e5761089d610641565b5b60006108ac84828501610873565b91505092915050565b7f4e487b7100000000000000000000000000000000000000000000000000000000600052601160045260246000fd5b60006108ef826106d1565b91506108fa836106d1565b9250828202610908816106d1565b9150828204841483151761091f5761091e6108b5565b5b5092915050565b7f4e487b7100000000000000000000000000000000000000000000000000000000600052601260045260246000fd5b6000610960826106d1565b915061096b836106d1565b92508261097b5761097a610926565b5b828204905092915050565b6000610991826106d1565b915061099c836106d1565b92508282019050808211156109b4576109b36108b5565b5b92915050565b60006109c5826106d1565b91506109d0836106d1565b92508282039050818111156109e8576109e76108b5565b5b9291505056fea2646970667358221220454d73505e1f225ee806cfcc9bf9f4de74c4ce41a5dc393b03d81116906c6c0a64736f6c63430008140033",
  "linkReferences": {},
  "deployedLinkReferences": {}
}