{
  "_format": "hh3-artifact-1",
  "contractName": "FlashLoanReceiver",
  "sourceName": "contracts/FlashLoanReceiver.sol",
  "abi": [
    {
      "inputs": [
        {
          "internalType": "address",
          "name": "_lendingPool",
          "type": "address"
        }
      ],
      "stateMutability": "nonpayable",
      "type": "constructor"
    },
    {
      "anonymous": false,
      "inputs": [
        {
          "indexed": true,
          "internalType": "address",
          "name": "token",
          "type": "address"
        },
        {
          "indexed": false,
          "internalType": "uint256",
          "name": "amount",
          "type": "uint256"
        },
        {
          "indexed": false,
          "internalType": "uint256",
          "name": "profit",
          "type": "uint256"
        }
      ],
      "name": "FlashLoanExecuted",
      "type": "event"
    },
    {
      "inputs": [
        {
          "internalType": "address",
          "name": "token",
          "type": "address"
        },
        {
          "internalType": "uint256",
          "name": "amount",
          "type": "uint256"
        },
        {
          "internalType": "uint256",
          "name": "fee",
          "type": "uint256"
        },
        {
          "internalType": "bytes",
          "name": "params",
          "type": "bytes"
        }
      ],
      "name": "executeOperation",
      "outputs": [
        {
          "internalType": "bool",
          "name": "",
          "type": "bool"
        }
      ],
      "stateMutability": "nonpayable",
      "type": "function"
    },
    {
      "inputs": [],
      "name": "lendingPool",
      "outputs": [
        {
          "internalType": "contract ILendingPool",
          "name": "",
          "type": "address"
        }
      ],
      "stateMutability": "view",
      "type": "function"
    },
    {
      "inputs": [],
      "name": "owner",
      "outputs": [
        {
          "internalType": "address",
          "name": "",
          "type": "address"
        }
      ],
      "stateMutability": "view",
      "type": "function"
    }
  ],
  "bytecode": "0x608060405234801561000f575f80fd5b5060405161096338038061096383398181016040528101906100319190610114565b805f806101000a81548173ffffffffffffffffffffffffffffffffffffffff021916908373ffffffffffffffffffffffffffffffffffffffff1602179055503360015f6101000a81548173ffffffffffffffffffffffffffffffffffffffff021916908373ffffffffffffffffffffffffffffffffffffffff1602179055505061013f565b5f80fd5b5f73ffffffffffffffffffffffffffffffffffffffff82169050919050565b5f6100e3826100ba565b9050919050565b6100f3816100d9565b81146100fd575f80fd5b50565b5f8151905061010e816100ea565b92915050565b5f60208284031215610129576101286100b6565b5b5f61013684828501610100565b91505092915050565b6108178061014c5f395ff3fe608060405234801561000f575f80fd5b506004361061003f575f3560e01c80638da5cb5b14610043578063a59a997314610061578063ee8725581461007f575b5f80fd5b61004b6100af565b6040516100589190610388565b60405180910390f35b6100696100d4565b60405161007691906103fc565b60405180910390f35b610099600480360381019061009491906104db565b6100f7565b6040516100a69190610579565b60405180910390f35b60015f9054906101000a900473ffffffffffffffffffffffffffffffffffffffff1681565b5f8054906101000a900473ffffffffffffffffffffffffffffffffffffffff1681565b5f805f9054906101000a900473ffffffffffffffffffffffffffffffffffffffff1673ffffffffffffffffffffffffffffffffffffffff163373ffffffffffffffffffffffffffffffffffffffff1614610186576040517f08c379a000000000000000000000000000000000000000000000000000000000815260040161017d906105ec565b60405180910390fd5b5f6064866101949190610664565b90505f85876101a39190610694565b90508773ffffffffffffffffffffffffffffffffffffffff1663095ea7b35f8054906101000a900473ffffffffffffffffffffffffffffffffffffffff16836040518363ffffffff1660e01b81526004016101ff9291906106d6565b6020604051808303815f875af115801561021b573d5f803e3d5ffd5b505050506040513d601f19601f8201168201806040525081019061023f9190610727565b508773ffffffffffffffffffffffffffffffffffffffff166323b872dd60015f9054906101000a900473ffffffffffffffffffffffffffffffffffffffff16308a8561028b9190610752565b6040518463ffffffff1660e01b81526004016102a993929190610785565b6020604051808303815f875af11580156102c5573d5f803e3d5ffd5b505050506040513d601f19601f820116820180604052508101906102e99190610727565b508773ffffffffffffffffffffffffffffffffffffffff167f61268d74931c41c9775dffb6169a5208aab1d09cb2eb6aabe8b97162801e5dfa88846040516103329291906107ba565b60405180910390a260019250505095945050505050565b5f73ffffffffffffffffffffffffffffffffffffffff82169050919050565b5f61037282610349565b9050919050565b61038281610368565b82525050565b5f60208201905061039b5f830184610379565b92915050565b5f819050919050565b5f6103c46103bf6103ba84610349565b6103a1565b610349565b9050919050565b5f6103d5826103aa565b9050919050565b5f6103e6826103cb565b9050919050565b6103f6816103dc565b82525050565b5f60208201905061040f5f8301846103ed565b92915050565b5f80fd5b5f80fd5b61042681610368565b8114610430575f80fd5b50565b5f813590506104418161041d565b92915050565b5f819050919050565b61045981610447565b8114610463575f80fd5b50565b5f8135905061047481610450565b92915050565b5f80fd5b5f80fd5b5f80fd5b5f8083601f84011261049b5761049a61047a565b5b8235905067ffffffffffffffff8111156104b8576104b761047e565b5b6020830191508360018202830111156104d4576104d3610482565b5b9250929050565b5f805f805f608086880312156104f4576104f3610415565b5b5f61050188828901610433565b955050602061051288828901610466565b945050604061052388828901610466565b935050606086013567ffffffffffffffff81111561054457610543610419565b5b61055088828901610486565b92509250509295509295909350565b5f8115159050919050565b6105738161055f565b82525050565b5f60208201905061058c5f83018461056a565b92915050565b5f82825260208201905092915050565b7f556e617574686f72697a656400000000000000000000000000000000000000005f82015250565b5f6105d6600c83610592565b91506105e1826105a2565b602082019050919050565b5f6020820190508181035f830152610603816105ca565b9050919050565b7f4e487b71000000000000000000000000000000000000000000000000000000005f52601260045260245ffd5b7f4e487b71000000000000000000000000000000000000000000000000000000005f52601160045260245ffd5b5f61066e82610447565b915061067983610447565b9250826106895761068861060a565b5b828204905092915050565b5f61069e82610447565b91506106a983610447565b92508282019050808211156106c1576106c0610637565b5b92915050565b6106d081610447565b82525050565b5f6040820190506106e95f830185610379565b6106f660208301846106c7565b9392505050565b6107068161055f565b8114610710575f80fd5b50565b5f81519050610721816106fd565b92915050565b5f6020828403121561073c5761073b610415565b5b5f61074984828501610713565b91505092915050565b5f61075c82610447565b915061076783610447565b925082820390508181111561077f5761077e610637565b5b92915050565b5f6060820190506107985f830186610379565b6107a56020830185610379565b6107b260408301846106c7565b949350505050565b5f6040820190506107cd5f8301856106c7565b6107da60208301846106c7565b939250505056fea2646970667358221220960862f7f1ea712fbb51a845acfdfe9c3e71af07f979fffa826a7e9d6001fa0964736f6c63430008140033",
  "linkReferences": {},
  "deployedLinkReferences": {},
  "immutableReferences": {},
  "inputSourceName": "project/contracts/FlashLoanReceiver.sol",
  "buildInfoId": "solc-0_8_20-c383f3efa3a4fdaf5ca401f96ad08e7224980ee8"
}