{
  "_format": "hh-sol-artifact-1",
  "contractName": "FlashLoanReceiver",
  "sourceName": "contracts/FlashLoanReceiver.sol",
  "abi": [
    {
      "inputs": [
        {
          "internalType": "address",
          "name": "_lendingPool",
          "type": "address"
        }
      ],
      "stateMutability": "nonpayable",
      "type": "constructor"
    },
    {
      "anonymous": false,
      "inputs": [
        {
          "indexed": true,
          "internalType": "address",
          "name": "token",
          "type": "address"
        },
        {
          "indexed": false,
          "internalType": "uint256",
          "name": "amount",
          "type": "uint256"
        },
        {
          "indexed": false,
          "internalType": "uint256",
          "name": "profit",
          "type": "uint256"
        }
      ],
      "name": "FlashLoanExecuted",
      "type": "event"
    },
    {
      "inputs": [
        {
          "internalType": "address",
          "name": "token",
          "type": "address"
        },
        {
          "internalType": "uint256",
          "name": "amount",
          "type": "uint256"
        },
        {
          "internalType": "uint256",
          "name": "fee",
          "type": "uint256"
        },
        {
          "internalType": "bytes",
          "name": "params",
          "type": "bytes"
        }
      ],
      "name": "executeOperation",
      "outputs": [
        {
          "internalType": "bool",
          "name": "",
          "type": "bool"
        }
      ],
      "stateMutability": "nonpayable",
      "type": "function"
    },
    {
      "inputs": [],
      "name": "lendingPool",
      "outputs": [
        {
          "internalType": "contract ILendingPool",
          "name": "",
          "type": "address"
        }
      ],
      "stateMutability": "view",
      "type": "function"
    },
    {
      "inputs": [],
      "name": "owner",
      "outputs": [
        {
          "internalType": "address",
          "name": "",
          "type": "address"
        }
      ],
      "stateMutability": "view",
      "type": "function"
    }
  ],
  "bytecode": "0x608060405234801561001057600080fd5b506040516109b23803806109b28339818101604052810190610032919061011c565b806000806101000a81548173ffffffffffffffffffffffffffffffffffffffff021916908373ffffffffffffffffffffffffffffffffffffffff16021790555033600160006101000a81548173ffffffffffffffffffffffffffffffffffffffff021916908373ffffffffffffffffffffffffffffffffffffffff16021790555050610149565b600080fd5b600073ffffffffffffffffffffffffffffffffffffffff82169050919050565b60006100e9826100be565b9050919050565b6100f9816100de565b811461010457600080fd5b50565b600081519050610116816100f0565b92915050565b600060208284031215610132576101316100b9565b5b600061014084828501610107565b91505092915050565b61085a806101586000396000f3fe608060405234801561001057600080fd5b50600436106100415760003560e01c80638da5cb5b14610046578063a59a997314610064578063ee87255814610082575b600080fd5b61004e6100b2565b60405161005b919061039b565b60405180910390f35b61006c6100d8565b6040516100799190610415565b60405180910390f35b61009c60048036038101906100979190610501565b6100fc565b6040516100a991906105a4565b60405180910390f35b600160009054906101000a900473ffffffffffffffffffffffffffffffffffffffff1681565b60008054906101000a900473ffffffffffffffffffffffffffffffffffffffff1681565b60008060009054906101000a900473ffffffffffffffffffffffffffffffffffffffff1673ffffffffffffffffffffffffffffffffffffffff163373ffffffffffffffffffffffffffffffffffffffff161461018d576040517f08c379a00000000000000000000000000000000000000000000000000000000081526004016101849061061c565b60405180910390fd5b600060648661019c919061069a565b9050600085876101ac91906106cb565b90508773ffffffffffffffffffffffffffffffffffffffff1663095ea7b360008054906101000a900473ffffffffffffffffffffffffffffffffffffffff16836040518363ffffffff1660e01b815260040161020992919061070e565b6020604051808303816000875af1158015610228573d6000803e3d6000fd5b505050506040513d601f19601f8201168201806040525081019061024c9190610763565b508773ffffffffffffffffffffffffffffffffffffffff166323b872dd600160009054906101000a900473ffffffffffffffffffffffffffffffffffffffff16308a856102999190610790565b6040518463ffffffff1660e01b81526004016102b7939291906107c4565b6020604051808303816000875af11580156102d6573d6000803e3d6000fd5b505050506040513d601f19601f820116820180604052508101906102fa9190610763565b508773ffffffffffffffffffffffffffffffffffffffff167f61268d74931c41c9775dffb6169a5208aab1d09cb2eb6aabe8b97162801e5dfa88846040516103439291906107fb565b60405180910390a260019250505095945050505050565b600073ffffffffffffffffffffffffffffffffffffffff82169050919050565b60006103858261035a565b9050919050565b6103958161037a565b82525050565b60006020820190506103b0600083018461038c565b92915050565b6000819050919050565b60006103db6103d66103d18461035a565b6103b6565b61035a565b9050919050565b60006103ed826103c0565b9050919050565b60006103ff826103e2565b9050919050565b61040f816103f4565b82525050565b600060208201905061042a6000830184610406565b92915050565b600080fd5b600080fd5b6104438161037a565b811461044e57600080fd5b50565b6000813590506104608161043a565b92915050565b6000819050919050565b61047981610466565b811461048457600080fd5b50565b60008135905061049681610470565b92915050565b600080fd5b600080fd5b600080fd5b60008083601f8401126104c1576104c061049c565b5b8235905067ffffffffffffffff8111156104de576104dd6104a1565b5b6020830191508360018202830111156104fa576104f96104a6565b5b9250929050565b60008060008060006080868803121561051d5761051c610430565b5b600061052b88828901610451565b955050602061053c88828901610487565b945050604061054d88828901610487565b935050606086013567ffffffffffffffff81111561056e5761056d610435565b5b61057a888289016104ab565b92509250509295509295909350565b60008115159050919050565b61059e81610589565b82525050565b60006020820190506105b96000830184610595565b92915050565b600082825260208201905092915050565b7f556e617574686f72697a65640000000000000000000000000000000000000000600082015250565b6000610606600c836105bf565b9150610611826105d0565b602082019050919050565b60006020820190508181036000830152610635816105f9565b9050919050565b7f4e487b7100000000000000000000000000000000000000000000000000000000600052601260045260246000fd5b7f4e487b7100000000000000000000000000000000000000000000000000000000600052601160045260246000fd5b60006106a582610466565b91506106b083610466565b9250826106c0576106bf61063c565b5b828204905092915050565b60006106d682610466565b91506106e183610466565b92508282019050808211156106f9576106f861066b565b5b92915050565b61070881610466565b82525050565b6000604082019050610723600083018561038c565b61073060208301846106ff565b9392505050565b61074081610589565b811461074b57600080fd5b50565b60008151905061075d81610737565b92915050565b60006020828403121561077957610778610430565b5b60006107878482850161074e565b91505092915050565b600061079b82610466565b91506107a683610466565b92508282039050818111156107be576107bd61066b565b5b92915050565b60006060820190506107d9600083018661038c565b6107e6602083018561038c565b6107f360408301846106ff565b949350505050565b600060408201905061081060008301856106ff565b61081d60208301846106ff565b939250505056fea2646970667358221220ebebc4bfd10c89c9f87770fc61d1c81dd054f47e3cb7def4f36a54221c6198b364736f6c63430008140033",
  "linkReferences": {},
  "deployedLinkReferences": {}
}