{
  "_format": "hh-sol-artifact-1",
  "contractName": "LendingPool",
  "sourceName": "contracts/LendingPool.sol",
  "abi": [
    {
      "inputs": [
        {
          "internalType": "address",
          "name": "_interestModel",
          "type": "address"
        }
      ],
      "stateMutability": "nonpayable",
      "type": "constructor"
    },
    {
      "inputs": [
        {
          "internalType": "address",
          "name": "owner",
          "type": "address"
        }
      ],
      "name": "OwnableInvalidOwner",
      "type": "error"
    },
    {
      "inputs": [
        {
          "internalType": "address",
          "name": "account",
          "type": "address"
        }
      ],
      "name": "OwnableUnauthorizedAccount",
      "type": "error"
    },
    {
      "inputs": [],
      "name": "ReentrancyGuardReentrantCall",
      "type": "error"
    },
    {
      "inputs": [
        {
          "internalType": "address",
          "name": "token",
          "type": "address"
        }
      ],
      "name": "SafeERC20FailedOperation",
      "type": "error"
    },
    {
      "anonymous": false,
      "inputs": [
        {
          "indexed": true,
          "internalType": "address",
          "name": "user",
          "type": "address"
        },
        {
          "indexed": false,
          "internalType": "uint256",
          "name": "loanId",
          "type": "uint256"
        },
        {
          "indexed": true,
          "internalType": "address",
          "name": "borrowToken",
          "type": "address"
        },
        {
          "indexed": false,
          "internalType": "uint256",
          "name": "amount",
          "type": "uint256"
        },
        {
          "indexed": false,
          "internalType": "address",
          "name": "collateralToken",
          "type": "address"
        },
        {
          "indexed": false,
          "internalType": "uint256",
          "name": "collateralAmount",
          "type": "uint256"
        }
      ],
      "name": "Borrow",
      "type": "event"
    },
    {
      "anonymous": false,
      "inputs": [
        {
          "indexed": true,
          "internalType": "address",
          "name": "user",
          "type": "address"
        },
        {
          "indexed": true,
          "internalType": "address",
          "name": "token",
          "type": "address"
        },
        {
          "indexed": false,
          "internalType": "uint256",
          "name": "amount",
          "type": "uint256"
        }
      ],
      "name": "Deposit",
      "type": "event"
    },
    {
      "anonymous": false,
      "inputs": [
        {
          "indexed": true,
          "internalType": "address",
          "name": "receiver",
          "type": "address"
        },
        {
          "indexed": true,
          "internalType": "address",
          "name": "token",
          "type": "address"
        },
        {
          "indexed": false,
          "internalType": "uint256",
          "name": "amount",
          "type": "uint256"
        },
        {
          "indexed": false,
          "internalType": "uint256",
          "name": "fee",
          "type": "uint256"
        }
      ],
      "name": "FlashLoan",
      "type": "event"
    },
    {
      "anonymous": false,
      "inputs": [
        {
          "indexed": true,
          "internalType": "address",
          "name": "liquidator",
          "type": "address"
        },
        {
          "indexed": true,
          "internalType": "address",
          "name": "borrower",
          "type": "address"
        },
        {
          "indexed": false,
          "internalType": "uint256",
          "name": "loanId",
          "type": "uint256"
        },
        {
          "indexed": false,
          "internalType": "uint256",
          "name": "repayAmount",
          "type": "uint256"
        }
      ],
      "name": "Liquidation",
      "type": "event"
    },
    {
      "anonymous": false,
      "inputs": [
        {
          "indexed": true,
          "internalType": "address",
          "name": "previousOwner",
          "type": "address"
        },
        {
          "indexed": true,
          "internalType": "address",
          "name": "newOwner",
          "type": "address"
        }
      ],
      "name": "OwnershipTransferred",
      "type": "event"
    },
    {
      "anonymous": false,
      "inputs": [
        {
          "indexed": true,
          "internalType": "address",
          "name": "user",
          "type": "address"
        },
        {
          "indexed": false,
          "internalType": "uint256",
          "name": "loanId",
          "type": "uint256"
        },
        {
          "indexed": false,
          "internalType": "uint256",
          "name": "amount",
          "type": "uint256"
        }
      ],
      "name": "Repay",
      "type": "event"
    },
    {
      "anonymous": false,
      "inputs": [
        {
          "indexed": true,
          "internalType": "address",
          "name": "user",
          "type": "address"
        },
        {
          "indexed": false,
          "internalType": "int256",
          "name": "change",
          "type": "int256"
        },
        {
          "indexed": false,
          "internalType": "uint256",
          "name": "newReputation",
          "type": "uint256"
        }
      ],
      "name": "ReputationUpdated",
      "type": "event"
    },
    {
      "anonymous": false,
      "inputs": [
        {
          "indexed": true,
          "internalType": "address",
          "name": "user",
          "type": "address"
        },
        {
          "indexed": true,
          "internalType": "address",
          "name": "token",
          "type": "address"
        },
        {
          "indexed": false,
          "internalType": "uint256",
          "name": "amount",
          "type": "uint256"
        }
      ],
      "name": "Withdraw",
      "type": "event"
    },
    {
      "inputs": [],
      "name": "FLASH_LOAN_FEE_PRECISION",
      "outputs": [
        {
          "internalType": "uint256",
          "name": "",
          "type": "uint256"
        }
      ],
      "stateMutability": "view",
      "type": "function"
    },
    {
      "inputs": [],
      "name": "HEALTH_FACTOR_MIN",
      "outputs": [
        {
          "internalType": "uint256",
          "name": "",
          "type": "uint256"
        }
      ],
      "stateMutability": "view",
      "type": "function"
    },
    {
      "inputs": [],
      "name": "LIQUIDATION_BONUS",
      "outputs": [
        {
          "internalType": "uint256",
          "name": "",
          "type": "uint256"
        }
      ],
      "stateMutability": "view",
      "type": "function"
    },
    {
      "inputs": [],
      "name": "LTV_RATIO",
      "outputs": [
        {
          "internalType": "uint256",
          "name": "",
          "type": "uint256"
        }
      ],
      "stateMutability": "view",
      "type": "function"
    },
    {
      "inputs": [
        {
          "internalType": "address",
          "name": "token",
          "type": "address"
        }
      ],
      "name": "addMarket",
      "outputs": [],
      "stateMutability": "nonpayable",
      "type": "function"
    },
    {
      "inputs": [
        {
          "internalType": "address",
          "name": "collateralToken",
          "type": "address"
        },
        {
          "internalType": "uint256",
          "name": "collateralAmount",
          "type": "uint256"
        },
        {
          "internalType": "address",
          "name": "borrowToken",
          "type": "address"
        },
        {
          "internalType": "uint256",
          "name": "borrowAmount",
          "type": "uint256"
        }
      ],
      "name": "borrow",
      "outputs": [],
      "stateMutability": "nonpayable",
      "type": "function"
    },
    {
      "inputs": [
        {
          "internalType": "address",
          "name": "token",
          "type": "address"
        },
        {
          "internalType": "uint256",
          "name": "amount",
          "type": "uint256"
        }
      ],
      "name": "deposit",
      "outputs": [],
      "stateMutability": "nonpayable",
      "type": "function"
    },
    {
      "inputs": [
        {
          "internalType": "address",
          "name": "receiver",
          "type": "address"
        },
        {
          "internalType": "address",
          "name": "token",
          "type": "address"
        },
        {
          "internalType": "uint256",
          "name": "amount",
          "type": "uint256"
        },
        {
          "internalType": "bytes",
          "name": "params",
          "type": "bytes"
        }
      ],
      "name": "flashLoan",
      "outputs": [],
      "stateMutability": "nonpayable",
      "type": "function"
    },
    {
      "inputs": [],
      "name": "flashLoanFee",
      "outputs": [
        {
          "internalType": "uint256",
          "name": "",
          "type": "uint256"
        }
      ],
      "stateMutability": "view",
      "type": "function"
    },
    {
      "inputs": [
        {
          "internalType": "address",
          "name": "token",
          "type": "address"
        }
      ],
      "name": "getMarket",
      "outputs": [
        {
          "internalType": "uint256",
          "name": "totalLiquidity",
          "type": "uint256"
        },
        {
          "internalType": "uint256",
          "name": "totalBorrows",
          "type": "uint256"
        },
        {
          "internalType": "uint256",
          "name": "utilization",
          "type": "uint256"
        }
      ],
      "stateMutability": "view",
      "type": "function"
    },
    {
      "inputs": [
        {
          "internalType": "address",
          "name": "user",
          "type": "address"
        }
      ],
      "name": "getReputation",
      "outputs": [
        {
          "internalType": "uint256",
          "name": "",
          "type": "uint256"
        }
      ],
      "stateMutability": "view",
      "type": "function"
    },
    {
      "inputs": [
        {
          "internalType": "address",
          "name": "token",
          "type": "address"
        }
      ],
      "name": "getUtilization",
      "outputs": [
        {
          "internalType": "uint256",
          "name": "",
          "type": "uint256"
        }
      ],
      "stateMutability": "view",
      "type": "function"
    },
    {
      "inputs": [],
      "name": "interestModel",
      "outputs": [
        {
          "internalType": "contract IVariableInterestRateModel",
          "name": "",
          "type": "address"
        }
      ],
      "stateMutability": "view",
      "type": "function"
    },
    {
      "inputs": [
        {
          "internalType": "address",
          "name": "",
          "type": "address"
        }
      ],
      "name": "markets",
      "outputs": [
        {
          "internalType": "uint256",
          "name": "totalLiquidity",
          "type": "uint256"
        },
        {
          "internalType": "uint256",
          "name": "totalBorrows",
          "type": "uint256"
        },
        {
          "internalType": "uint256",
          "name": "reservesFactor",
          "type": "uint256"
        },
        {
          "internalType": "uint256",
          "name": "lastAccrualBlock",
          "type": "uint256"
        },
        {
          "internalType": "uint256",
          "name": "borrowIndex",
          "type": "uint256"
        }
      ],
      "stateMutability": "view",
      "type": "function"
    },
    {
      "inputs": [],
      "name": "owner",
      "outputs": [
        {
          "internalType": "address",
          "name": "",
          "type": "address"
        }
      ],
      "stateMutability": "view",
      "type": "function"
    },
    {
      "inputs": [],
      "name": "renounceOwnership",
      "outputs": [],
      "stateMutability": "nonpayable",
      "type": "function"
    },
    {
      "inputs": [
        {
          "internalType": "uint256",
          "name": "loanId",
          "type": "uint256"
        },
        {
          "internalType": "uint256",
          "name": "repayAmount",
          "type": "uint256"
        }
      ],
      "name": "repay",
      "outputs": [],
      "stateMutability": "nonpayable",
      "type": "function"
    },
    {
      "inputs": [
        {
          "internalType": "address",
          "name": "",
          "type": "address"
        }
      ],
      "name": "supportedTokens",
      "outputs": [
        {
          "internalType": "bool",
          "name": "",
          "type": "bool"
        }
      ],
      "stateMutability": "view",
      "type": "function"
    },
    {
      "inputs": [
        {
          "internalType": "address",
          "name": "newOwner",
          "type": "address"
        }
      ],
      "name": "transferOwnership",
      "outputs": [],
      "stateMutability": "nonpayable",
      "type": "function"
    },
    {
      "inputs": [
        {
          "internalType": "address",
          "name": "",
          "type": "address"
        },
        {
          "internalType": "address",
          "name": "",
          "type": "address"
        }
      ],
      "name": "userDeposits",
      "outputs": [
        {
          "internalType": "uint256",
          "name": "",
          "type": "uint256"
        }
      ],
      "stateMutability": "view",
      "type": "function"
    },
    {
      "inputs": [
        {
          "internalType": "address",
          "name": "",
          "type": "address"
        }
      ],
      "name": "userLoanCount",
      "outputs": [
        {
          "internalType": "uint256",
          "name": "",
          "type": "uint256"
        }
      ],
      "stateMutability": "view",
      "type": "function"
    },
    {
      "inputs": [
        {
          "internalType": "address",
          "name": "",
          "type": "address"
        },
        {
          "internalType": "uint256",
          "name": "",
          "type": "uint256"
        }
      ],
      "name": "userLoans",
      "outputs": [
        {
          "internalType": "uint256",
          "name": "borrowAmount",
          "type": "uint256"
        },
        {
          "internalType": "uint256",
          "name": "collateralAmount",
          "type": "uint256"
        },
        {
          "internalType": "address",
          "name": "collateralToken",
          "type": "address"
        },
        {
          "internalType": "address",
          "name": "borrowToken",
          "type": "address"
        },
        {
          "internalType": "uint256",
          "name": "borrowRateAtTime",
          "type": "uint256"
        },
        {
          "internalType": "uint256",
          "name": "borrowBlock",
          "type": "uint256"
        },
        {
          "internalType": "bool",
          "name": "active",
          "type": "bool"
        }
      ],
      "stateMutability": "view",
      "type": "function"
    },
    {
      "inputs": [
        {
          "internalType": "address",
          "name": "",
          "type": "address"
        }
      ],
      "name": "userReputation",
      "outputs": [
        {
          "internalType": "uint256",
          "name": "",
          "type": "uint256"
        }
      ],
      "stateMutability": "view",
      "type": "function"
    },
    {
      "inputs": [
        {
          "internalType": "address",
          "name": "token",
          "type": "address"
        },
        {
          "internalType": "uint256",
          "name": "amount",
          "type": "uint256"
        }
      ],
      "name": "withdraw",
      "outputs": [],
      "stateMutability": "nonpayable",
      "type": "function"
    }
  ],
  "bytecode": "0x6080604052600980553480156200001557600080fd5b5060405162001cc738038062001cc78339810160408190526200003891620000e8565b600160005533806200006457604051631e4fbdf760e01b81526000600482015260240160405180910390fd5b6200006f8162000096565b50600880546001600160a01b0319166001600160a01b03929092169190911790556200011a565b600180546001600160a01b038381166001600160a01b0319831681179093556040519116919082907f8be0079c531659141344cd1fd0a4f28419497f9722a3daafe3b4186f6b6457e090600090a35050565b600060208284031215620000fb57600080fd5b81516001600160a01b03811681146200011357600080fd5b9392505050565b611b9d806200012a6000396000f3fe608060405234801561001057600080fd5b50600436106101585760003560e01c806393e30633116100c3578063d8aed1451161007c578063d8aed1451461035c578063d8bad5bd1461036f578063e503bb0514610416578063f2fde38b14610436578063f3fef3a314610449578063fdce86431461045c57600080fd5b806393e30633146102ac5780639c89a0e2146102bf578063ac165d7a146102e8578063af85e1d5146102fb578063d02805391461031b578063d4dfadbf1461032e57600080fd5b806358caa5b71161011557806358caa5b7146101cb5780635cffe9de146101d457806368c4ac26146101e7578063715018a61461021a5780638da5cb5b146102225780638e8f294b1461024757600080fd5b80633574d4c41461015d578063436d80391461017957806343fde94d1461015d57806347e7ef24146101a45780634847cdc8146101b95780635696b189146101c2575b600080fd5b61016661044c81565b6040519081526020015b60405180910390f35b610166610187366004611884565b600360209081526000928352604080842090915290825290205481565b6101b76101b23660046118b7565b61046f565b005b61016660095481565b610166611d4c81565b61016661271081565b6101b76101e23660046118e1565b6105cb565b61020a6101f536600461197c565b60076020526000908152604090205460ff1681565b6040519015158152602001610170565b6101b761093f565b6001546001600160a01b03165b6040516001600160a01b039091168152602001610170565b61028461025536600461197c565b600260208190526000918252604090912080546001820154928201546003830154600490930154919392909185565b604080519586526020860194909452928401919091526060830152608082015260a001610170565b6101b76102ba36600461197c565b610953565b6101666102cd36600461197c565b6001600160a01b031660009081526006602052604090205490565b60085461022f906001600160a01b031681565b61016661030936600461197c565b60056020526000908152604090205481565b6101b761032936600461199e565b610a86565b61034161033c36600461197c565b610e7b565b60408051938452602084019290925290820152606001610170565b6101b761036a3660046119e2565b610ee7565b6103d361037d3660046118b7565b600460208181526000938452604080852090915291835291208054600182015460028301546003840154948401546005850154600690950154939592946001600160a01b03928316949290931692909160ff1687565b6040805197885260208801969096526001600160a01b0394851695870195909552929091166060850152608084015260a0830152151560c082015260e001610170565b61016661042436600461197c565b60066020526000908152604090205481565b6101b761044436600461197c565b611138565b6101b76104573660046118b7565b611176565b61016661046a36600461197c565b6113a8565b610477611444565b6001600160a01b03821660009081526007602052604090205460ff166104da5760405162461bcd60e51b8152602060048201526013602482015272151bdad95b881b9bdd081cdd5c1c1bdc9d1959606a1b60448201526064015b60405180910390fd5b600081116104fa5760405162461bcd60e51b81526004016104d190611a04565b6105038261146e565b6105186001600160a01b0383163330846115d3565b3360009081526003602090815260408083206001600160a01b03861684529091528120805483929061054b908490611a46565b90915550506001600160a01b03821660009081526002602052604081208054839290610578908490611a46565b90915550506040518181526001600160a01b0383169033907f5548c837ab068cf56a2c2479df0882a4922fd203edb7517321831d95078c5f629060200160405180910390a36105c76001600055565b5050565b6105d3611444565b6001600160a01b03841660009081526007602052604090205460ff166106315760405162461bcd60e51b8152602060048201526013602482015272151bdad95b881b9bdd081cdd5c1c1bdc9d1959606a1b60448201526064016104d1565b600083116106515760405162461bcd60e51b81526004016104d190611a04565b6040516370a0823160e01b81523060048201526000906001600160a01b038616906370a0823190602401602060405180830381865afa158015610698573d6000803e3d6000fd5b505050506040513d601f19601f820116820180604052508101906106bc9190611a5f565b9050838110156107075760405162461bcd60e51b8152602060048201526016602482015275496e73756666696369656e74206c697175696469747960501b60448201526064016104d1565b60006127106009548661071a9190611a78565b6107249190611a8f565b905060006107328287611a46565b90506107486001600160a01b038816898861163a565b604051631dd0e4ab60e31b81526001600160a01b0389169063ee8725589061077c908a908a9087908b908b90600401611ab1565b6020604051808303816000875af115801561079b573d6000803e3d6000fd5b505050506040513d601f19601f820116820180604052508101906107bf9190611afd565b61080b5760405162461bcd60e51b815260206004820152601a60248201527f466c617368206c6f616e2063616c6c6261636b206661696c656400000000000060448201526064016104d1565b6040516370a0823160e01b81523060048201526000906001600160a01b038916906370a0823190602401602060405180830381865afa158015610852573d6000803e3d6000fd5b505050506040513d601f19601f820116820180604052508101906108769190611a5f565b90506108828385611a46565b8110156108c95760405162461bcd60e51b8152602060048201526015602482015274119b185cda081b1bd85b881b9bdd081c995c185a59605a1b60448201526064016104d1565b6108d4896003611670565b876001600160a01b0316896001600160a01b03167f0d7d75e01ab95780d3cd1c8ec0dd6c2ce19e3a20427eec8bf53283b6fb8e95f08986604051610922929190918252602082015260400190565b60405180910390a3505050506109386001600055565b5050505050565b610947611778565b61095160006117a5565b565b61095b611778565b6001600160a01b0381166109a15760405162461bcd60e51b815260206004820152600d60248201526c24b73b30b634b2103a37b5b2b760991b60448201526064016104d1565b6001600160a01b03811660009081526007602052604090205460ff16156109fa5760405162461bcd60e51b815260206004820152600d60248201526c4d61726b65742065786973747360981b60448201526064016104d1565b6001600160a01b03166000818152600760209081526040808320805460ff19166001908117909155815160a0810183528481528084018581526103e88285019081524360608401908152670de0b6b3a764000060808501908152988852600296879052949096209151825551918101919091559251918301919091555160038201559051600490910155565b610a8e611444565b6001600160a01b03841660009081526007602052604090205460ff16610af65760405162461bcd60e51b815260206004820152601e60248201527f436f6c6c61746572616c20746f6b656e206e6f7420737570706f72746564000060448201526064016104d1565b6001600160a01b03821660009081526007602052604090205460ff16610b5e5760405162461bcd60e51b815260206004820152601a60248201527f426f72726f7720746f6b656e206e6f7420737570706f7274656400000000000060448201526064016104d1565b60008111610b7e5760405162461bcd60e51b81526004016104d190611a04565b610b878261146e565b6000612710610b98611d4c86611a78565b610ba29190611a8f565b905080821115610be85760405162461bcd60e51b8152602060048201526011602482015270115e18d959591cc8131515881b1a5b5a5d607a1b60448201526064016104d1565b610bfd6001600160a01b0386163330876115d3565b336000908152600560205260408120805491829190610c1b83611b1f565b9091555050600854604051636b893afb60e11b81526001600160a01b038681166004830152600092169063d71275f690602401602060405180830381865afa158015610c6b573d6000803e3d6000fd5b505050506040513d601f19601f82011682018060405250810190610c8f9190611a5f565b90506040518060e00160405280858152602001878152602001886001600160a01b03168152602001866001600160a01b031681526020018281526020014381526020016001151581525060046000336001600160a01b03166001600160a01b031681526020019081526020016000206000848152602001908152602001600020600082015181600001556020820151816001015560408201518160020160006101000a8154816001600160a01b0302191690836001600160a01b0316021790555060608201518160030160006101000a8154816001600160a01b0302191690836001600160a01b031602179055506080820151816004015560a0820151816005015560c08201518160060160006101000a81548160ff0219169083151502179055509050508360026000876001600160a01b03166001600160a01b031681526020019081526020016000206001016000828254610dec9190611a46565b90915550610e0690506001600160a01b038616338661163a565b610e11336005611670565b60408051838152602081018690526001600160a01b03898116828401526060820189905291519187169133917f3b0c8614fdd4fc00bbbb478e8263105e5758369866c8e07e9bcd2508648cb77f919081900360800190a3505050610e756001600055565b50505050565b6001600160a01b0381166000908152600260208181526040808420815160a0810183528154808252600183015494820185905294820154928101929092526003810154606083015260040154608082015283928392610ed9876113a8565b935093509350509193909250565b610eef611444565b3360009081526004602090815260408083208584529091529020600681015460ff16610f4f5760405162461bcd60e51b815260206004820152600f60248201526e4c6f616e206e6f742061637469766560881b60448201526064016104d1565b60008211610f6f5760405162461bcd60e51b81526004016104d190611a04565b6003810154610f86906001600160a01b031661146e565b6000816005015443610f989190611b38565b905060006a01bd3355164f67820000008284600401548560000154610fbd9190611a78565b610fc79190611a78565b610fd19190611a8f565b90506000818460000154610fe59190611a46565b9050808511156110375760405162461bcd60e51b815260206004820152601960248201527f526570617920616d6f756e74206578636565647320646562740000000000000060448201526064016104d1565b6003840154611051906001600160a01b03163330886115d3565b848460000160008282546110659190611b38565b909155505060038401546001600160a01b031660009081526002602052604081206001018054879290611099908490611b38565b909155505083546000036110e45760068401805460ff19169055600184015460028501546110d4916001600160a01b0390911690339061163a565b6110df33600a611670565b6110ef565b6110ef336002611670565b604080518781526020810187905233917f77c6871227e5d2dec8dadd5354f78453203e22e669cd0ec4c19d9a8c5edb31d0910160405180910390a2505050506105c76001600055565b611140611778565b6001600160a01b03811661116a57604051631e4fbdf760e01b8152600060048201526024016104d1565b611173816117a5565b50565b61117e611444565b3360009081526003602090815260408083206001600160a01b03861684529091529020548111156111e85760405162461bcd60e51b8152602060048201526014602482015273496e73756666696369656e742062616c616e636560601b60448201526064016104d1565b600081116112085760405162461bcd60e51b81526004016104d190611a04565b6112118261146e565b6001600160a01b0382166000818152600260205260408082206001015490516370a0823160e01b8152306004820152919290916370a0823190602401602060405180830381865afa15801561126a573d6000803e3d6000fd5b505050506040513d601f19601f8201168201806040525081019061128e9190611a5f565b6112989190611b38565b9050818110156112e35760405162461bcd60e51b8152602060048201526016602482015275496e73756666696369656e74206c697175696469747960501b60448201526064016104d1565b3360009081526003602090815260408083206001600160a01b038716845290915281208054849290611316908490611b38565b90915550506001600160a01b03831660009081526002602052604081208054849290611343908490611b38565b9091555061135d90506001600160a01b038416338461163a565b6040518281526001600160a01b0384169033907f9b1bfa7fa9ee420a16e124f794c35ac9f90472acc99140eb2f6447c714cad8eb9060200160405180910390a3506105c76001600055565b6001600160a01b0381166000908152600260208181526040808420815160a0810183528154808252600183015494820185905294820154928101929092526003810154606083015260040154608082015291839161140591611a46565b905080600003611419575060009392505050565b808260200151670de0b6b3a76400006114329190611a78565b61143c9190611a8f565b949350505050565b60026000540361146757604051633ee5aeb560e01b815260040160405180910390fd5b6002600055565b6001600160a01b03811660009081526002602052604090206003810154439003611496575050565b600854604051636b893afb60e11b81526001600160a01b038481166004830152600092169063d71275f690602401602060405180830381865afa1580156114e1573d6000803e3d6000fd5b505050506040513d601f19601f820116820180604052508101906115059190611a5f565b905060008260030154436115199190611b38565b905060006a01bd3355164f67820000008284866001015461153a9190611a78565b6115449190611a78565b61154e9190611a8f565b9050808460010160008282546115649190611a46565b90915550670de0b6b3a764000090506a01bd3355164f67820000006115898486611a78565b6115939190611a8f565b6115a590670de0b6b3a7640000611a46565b85600401546115b49190611a78565b6115be9190611a8f565b60048501555050436003909201919091555050565b6040516001600160a01b038481166024830152838116604483015260648201839052610e759186918216906323b872dd906084015b604051602081830303815290604052915060e01b6020820180516001600160e01b0383818316178352505050506117f7565b6040516001600160a01b0383811660248301526044820183905261166b91859182169063a9059cbb90606401611608565b505050565b6001600160a01b038216600090815260066020526040812054908213156116c4576001600160a01b038316600090815260066020526040812080548492906116b9908490611a46565b909155506117229050565b6116cd82611b4b565b6001600160a01b03841660009081526006602052604090205410611722576116f482611b4b565b6001600160a01b0384166000908152600660205260408120805490919061171c908490611b38565b90915550505b6001600160a01b038316600081815260066020908152604091829020548251868152918201527f5712e29af9e0cda36f7084338830170ccb1f1c4986d27fc1d51d1f53562b9e66910160405180910390a2505050565b6001546001600160a01b031633146109515760405163118cdaa760e01b81523360048201526024016104d1565b600180546001600160a01b038381166001600160a01b0319831681179093556040519116919082907f8be0079c531659141344cd1fd0a4f28419497f9722a3daafe3b4186f6b6457e090600090a35050565b600080602060008451602086016000885af18061181a576040513d6000823e3d81fd5b50506000513d9150811561183257806001141561183f565b6001600160a01b0384163b155b15610e7557604051635274afe760e01b81526001600160a01b03851660048201526024016104d1565b80356001600160a01b038116811461187f57600080fd5b919050565b6000806040838503121561189757600080fd5b6118a083611868565b91506118ae60208401611868565b90509250929050565b600080604083850312156118ca57600080fd5b6118d383611868565b946020939093013593505050565b6000806000806000608086880312156118f957600080fd5b61190286611868565b945061191060208701611868565b935060408601359250606086013567ffffffffffffffff8082111561193457600080fd5b818801915088601f83011261194857600080fd5b81358181111561195757600080fd5b89602082850101111561196957600080fd5b9699959850939650602001949392505050565b60006020828403121561198e57600080fd5b61199782611868565b9392505050565b600080600080608085870312156119b457600080fd5b6119bd85611868565b9350602085013592506119d260408601611868565b9396929550929360600135925050565b600080604083850312156119f557600080fd5b50508035926020909101359150565b6020808252601290820152710416d6f756e74206d757374206265203e20360741b604082015260600190565b634e487b7160e01b600052601160045260246000fd5b80820180821115611a5957611a59611a30565b92915050565b600060208284031215611a7157600080fd5b5051919050565b8082028115828204841417611a5957611a59611a30565b600082611aac57634e487b7160e01b600052601260045260246000fd5b500490565b60018060a01b038616815284602082015283604082015260806060820152816080820152818360a0830137600081830160a090810191909152601f909201601f19160101949350505050565b600060208284031215611b0f57600080fd5b8151801515811461199757600080fd5b600060018201611b3157611b31611a30565b5060010190565b81810381811115611a5957611a59611a30565b6000600160ff1b8201611b6057611b60611a30565b506000039056fea2646970667358221220be782b1420913ab4a878f8360ed5a2caf2d7b5d099c99c5716374ed42395d3cc64736f6c63430008140033",
  "linkReferences": {},
  "deployedLinkReferences": {}
}