{
  "_format": "hh-sol-artifact-1",
  "contractName": "LendingPool",
  "sourceName": "contracts/LendingPool.sol",
  "abi": [
    {
      "inputs": [
        {
          "internalType": "address",
          "name": "_interestModel",
          "type": "address"
        }
      ],
      "stateMutability": "nonpayable",
      "type": "constructor"
    },
    {
      "inputs": [
        {
          "internalType": "address",
          "name": "owner",
          "type": "address"
        }
      ],
      "name": "OwnableInvalidOwner",
      "type": "error"
    },
    {
      "inputs": [
        {
          "internalType": "address",
          "name": "account",
          "type": "address"
        }
      ],
      "name": "OwnableUnauthorizedAccount",
      "type": "error"
    },
    {
      "inputs": [],
      "name": "ReentrancyGuardReentrantCall",
      "type": "error"
    },
    {
      "inputs": [
        {
          "internalType": "address",
          "name": "token",
          "type": "address"
        }
      ],
      "name": "SafeERC20FailedOperation",
      "type": "error"
    },
    {
      "anonymous": false,
      "inputs": [
        {
          "indexed": true,
          "internalType": "address",
          "name": "user",
          "type": "address"
        },
        {
          "indexed": false,
          "internalType": "uint256",
          "name": "loanId",
          "type": "uint256"
        },
        {
          "indexed": true,
          "internalType": "address",
          "name": "borrowToken",
          "type": "address"
        },
        {
          "indexed": false,
          "internalType": "uint256",
          "name": "amount",
          "type": "uint256"
        },
        {
          "indexed": false,
          "internalType": "address",
          "name": "collateralToken",
          "type": "address"
        },
        {
          "indexed": false,
          "internalType": "uint256",
          "name": "collateralAmount",
          "type": "uint256"
        }
      ],
      "name": "Borrow",
      "type": "event"
    },
    {
      "anonymous": false,
      "inputs": [
        {
          "indexed": true,
          "internalType": "address",
          "name": "user",
          "type": "address"
        },
        {
          "indexed": true,
          "internalType": "address",
          "name": "token",
          "type": "address"
        },
        {
          "indexed": false,
          "internalType": "uint256",
          "name": "amount",
          "type": "uint256"
        }
      ],
      "name": "Deposit",
      "type": "event"
    },
    {
      "anonymous": false,
      "inputs": [
        {
          "indexed": true,
          "internalType": "address",
          "name": "receiver",
          "type": "address"
        },
        {
          "indexed": true,
          "internalType": "address",
          "name": "token",
          "type": "address"
        },
        {
          "indexed": false,
          "internalType": "uint256",
          "name": "amount",
          "type": "uint256"
        },
        {
          "indexed": false,
          "internalType": "uint256",
          "name": "fee",
          "type": "uint256"
        }
      ],
      "name": "FlashLoan",
      "type": "event"
    },
    {
      "anonymous": false,
      "inputs": [
        {
          "indexed": true,
          "internalType": "address",
          "name": "liquidator",
          "type": "address"
        },
        {
          "indexed": true,
          "internalType": "address",
          "name": "borrower",
          "type": "address"
        },
        {
          "indexed": false,
          "internalType": "uint256",
          "name": "loanId",
          "type": "uint256"
        },
        {
          "indexed": false,
          "internalType": "uint256",
          "name": "repayAmount",
          "type": "uint256"
        }
      ],
      "name": "Liquidation",
      "type": "event"
    },
    {
      "anonymous": false,
      "inputs": [
        {
          "indexed": true,
          "internalType": "address",
          "name": "previousOwner",
          "type": "address"
        },
        {
          "indexed": true,
          "internalType": "address",
          "name": "newOwner",
          "type": "address"
        }
      ],
      "name": "OwnershipTransferred",
      "type": "event"
    },
    {
      "anonymous": false,
      "inputs": [
        {
          "indexed": true,
          "internalType": "address",
          "name": "user",
          "type": "address"
        },
        {
          "indexed": false,
          "internalType": "uint256",
          "name": "loanId",
          "type": "uint256"
        },
        {
          "indexed": false,
          "internalType": "uint256",
          "name": "amount",
          "type": "uint256"
        }
      ],
      "name": "Repay",
      "type": "event"
    },
    {
      "anonymous": false,
      "inputs": [
        {
          "indexed": true,
          "internalType": "address",
          "name": "user",
          "type": "address"
        },
        {
          "indexed": false,
          "internalType": "int256",
          "name": "change",
          "type": "int256"
        },
        {
          "indexed": false,
          "internalType": "uint256",
          "name": "newReputation",
          "type": "uint256"
        }
      ],
      "name": "ReputationUpdated",
      "type": "event"
    },
    {
      "anonymous": false,
      "inputs": [
        {
          "indexed": true,
          "internalType": "address",
          "name": "user",
          "type": "address"
        },
        {
          "indexed": true,
          "internalType": "address",
          "name": "token",
          "type": "address"
        },
        {
          "indexed": false,
          "internalType": "uint256",
          "name": "amount",
          "type": "uint256"
        }
      ],
      "name": "Withdraw",
      "type": "event"
    },
    {
      "inputs": [],
      "name": "FLASH_LOAN_FEE_PRECISION",
      "outputs": [
        {
          "internalType": "uint256",
          "name": "",
          "type": "uint256"
        }
      ],
      "stateMutability": "view",
      "type": "function"
    },
    {
      "inputs": [],
      "name": "HEALTH_FACTOR_MIN",
      "outputs": [
        {
          "internalType": "uint256",
          "name": "",
          "type": "uint256"
        }
      ],
      "stateMutability": "view",
      "type": "function"
    },
    {
      "inputs": [],
      "name": "LIQUIDATION_BONUS",
      "outputs": [
        {
          "internalType": "uint256",
          "name": "",
          "type": "uint256"
        }
      ],
      "stateMutability": "view",
      "type": "function"
    },
    {
      "inputs": [],
      "name": "LTV_RATIO",
      "outputs": [
        {
          "internalType": "uint256",
          "name": "",
          "type": "uint256"
        }
      ],
      "stateMutability": "view",
      "type": "function"
    },
    {
      "inputs": [
        {
          "internalType": "address",
          "name": "token",
          "type": "address"
        }
      ],
      "name": "addMarket",
      "outputs": [],
      "stateMutability": "nonpayable",
      "type": "function"
    },
    {
      "inputs": [
        {
          "internalType": "address",
          "name": "collateralToken",
          "type": "address"
        },
        {
          "internalType": "uint256",
          "name": "collateralAmount",
          "type": "uint256"
        },
        {
          "internalType": "address",
          "name": "borrowToken",
          "type": "address"
        },
        {
          "internalType": "uint256",
          "name": "borrowAmount",
          "type": "uint256"
        }
      ],
      "name": "borrow",
      "outputs": [],
      "stateMutability": "nonpayable",
      "type": "function"
    },
    {
      "inputs": [
        {
          "internalType": "address",
          "name": "token",
          "type": "address"
        },
        {
          "internalType": "uint256",
          "name": "amount",
          "type": "uint256"
        }
      ],
      "name": "deposit",
      "outputs": [],
      "stateMutability": "nonpayable",
      "type": "function"
    },
    {
      "inputs": [
        {
          "internalType": "address",
          "name": "receiver",
          "type": "address"
        },
        {
          "internalType": "address",
          "name": "token",
          "type": "address"
        },
        {
          "internalType": "uint256",
          "name": "amount",
          "type": "uint256"
        },
        {
          "internalType": "bytes",
          "name": "params",
          "type": "bytes"
        }
      ],
      "name": "flashLoan",
      "outputs": [],
      "stateMutability": "nonpayable",
      "type": "function"
    },
    {
      "inputs": [],
      "name": "flashLoanFee",
      "outputs": [
        {
          "internalType": "uint256",
          "name": "",
          "type": "uint256"
        }
      ],
      "stateMutability": "view",
      "type": "function"
    },
    {
      "inputs": [
        {
          "internalType": "address",
          "name": "token",
          "type": "address"
        }
      ],
      "name": "getMarket",
      "outputs": [
        {
          "internalType": "uint256",
          "name": "totalLiquidity",
          "type": "uint256"
        },
        {
          "internalType": "uint256",
          "name": "totalBorrows",
          "type": "uint256"
        },
        {
          "internalType": "uint256",
          "name": "utilization",
          "type": "uint256"
        }
      ],
      "stateMutability": "view",
      "type": "function"
    },
    {
      "inputs": [
        {
          "internalType": "address",
          "name": "user",
          "type": "address"
        }
      ],
      "name": "getReputation",
      "outputs": [
        {
          "internalType": "uint256",
          "name": "",
          "type": "uint256"
        }
      ],
      "stateMutability": "view",
      "type": "function"
    },
    {
      "inputs": [
        {
          "internalType": "address",
          "name": "token",
          "type": "address"
        }
      ],
      "name": "getUtilization",
      "outputs": [
        {
          "internalType": "uint256",
          "name": "",
          "type": "uint256"
        }
      ],
      "stateMutability": "view",
      "type": "function"
    },
    {
      "inputs": [],
      "name": "interestModel",
      "outputs": [
        {
          "internalType": "contract IVariableInterestRateModel",
          "name": "",
          "type": "address"
        }
      ],
      "stateMutability": "view",
      "type": "function"
    },
    {
      "inputs": [
        {
          "internalType": "address",
          "name": "",
          "type": "address"
        }
      ],
      "name": "markets",
      "outputs": [
        {
          "internalType": "uint256",
          "name": "totalLiquidity",
          "type": "uint256"
        },
        {
          "internalType": "uint256",
          "name": "totalBorrows",
          "type": "uint256"
        },
        {
          "internalType": "uint256",
          "name": "reservesFactor",
          "type": "uint256"
        },
        {
          "internalType": "uint256",
          "name": "lastAccrualBlock",
          "type": "uint256"
        },
        {
          "internalType": "uint256",
          "name": "borrowIndex",
          "type": "uint256"
        }
      ],
      "stateMutability": "view",
      "type": "function"
    },
    {
      "inputs": [],
      "name": "owner",
      "outputs": [
        {
          "internalType": "address",
          "name": "",
          "type": "address"
        }
      ],
      "stateMutability": "view",
      "type": "function"
    },
    {
      "inputs": [],
      "name": "renounceOwnership",
      "outputs": [],
      "stateMutability": "nonpayable",
      "type": "function"
    },
    {
      "inputs": [
        {
          "internalType": "uint256",
          "name": "loanId",
          "type": "uint256"
        },
        {
          "internalType": "uint256",
          "name": "repayAmount",
          "type": "uint256"
        }
      ],
      "name": "repay",
      "outputs": [],
      "stateMutability": "nonpayable",
      "type": "function"
    },
    {
      "inputs": [
        {
          "internalType": "address",
          "name": "",
          "type": "address"
        }
      ],
      "name": "supportedTokens",
      "outputs": [
        {
          "internalType": "bool",
          "name": "",
          "type": "bool"
        }
      ],
      "stateMutability": "view",
      "type": "function"
    },
    {
      "inputs": [
        {
          "internalType": "address",
          "name": "newOwner",
          "type": "address"
        }
      ],
      "name": "transferOwnership",
      "outputs": [],
      "stateMutability": "nonpayable",
      "type": "function"
    },
    {
      "inputs": [
        {
          "internalType": "address",
          "name": "",
          "type": "address"
        },
        {
          "internalType": "address",
          "name": "",
          "type": "address"
        }
      ],
      "name": "userDeposits",
      "outputs": [
        {
          "internalType": "uint256",
          "name": "",
          "type": "uint256"
        }
      ],
      "stateMutability": "view",
      "type": "function"
    },
    {
      "inputs": [
        {
          "internalType": "address",
          "name": "",
          "type": "address"
        }
      ],
      "name": "userLoanCount",
      "outputs": [
        {
          "internalType": "uint256",
          "name": "",
          "type": "uint256"
        }
      ],
      "stateMutability": "view",
      "type": "function"
    },
    {
      "inputs": [
        {
          "internalType": "address",
          "name": "",
          "type": "address"
        },
        {
          "internalType": "uint256",
          "name": "",
          "type": "uint256"
        }
      ],
      "name": "userLoans",
      "outputs": [
        {
          "internalType": "uint256",
          "name": "borrowAmount",
          "type": "uint256"
        },
        {
          "internalType": "uint256",
          "name": "collateralAmount",
          "type": "uint256"
        },
        {
          "internalType": "address",
          "name": "collateralToken",
          "type": "address"
        },
        {
          "internalType": "address",
          "name": "borrowToken",
          "type": "address"
        },
        {
          "internalType": "uint256",
          "name": "borrowRateAtTime",
          "type": "uint256"
        },
        {
          "internalType": "uint256",
          "name": "borrowBlock",
          "type": "uint256"
        },
        {
          "internalType": "bool",
          "name": "active",
          "type": "bool"
        }
      ],
      "stateMutability": "view",
      "type": "function"
    },
    {
      "inputs": [
        {
          "internalType": "address",
          "name": "",
          "type": "address"
        }
      ],
      "name": "userReputation",
      "outputs": [
        {
          "internalType": "uint256",
          "name": "",
          "type": "uint256"
        }
      ],
      "stateMutability": "view",
      "type": "function"
    },
    {
      "inputs": [
        {
          "internalType": "address",
          "name": "token",
          "type": "address"
        },
        {
          "internalType": "uint256",
          "name": "amount",
          "type": "uint256"
        }
      ],
      "name": "withdraw",
      "outputs": [],
      "stateMutability": "nonpayable",
      "type": "function"
    }
  ],
  "bytecode": "0x6080604052600980553480156200001557600080fd5b50604051620036c9380380620036c983398181016040528101906200003b919062000243565b336001600081905550600073ffffffffffffffffffffffffffffffffffffffff168173ffffffffffffffffffffffffffffffffffffffff1603620000b95760006040517f1e4fbdf7000000000000000000000000000000000000000000000000000000008152600401620000b0919062000286565b60405180910390fd5b620000ca816200011360201b60201c565b5080600860006101000a81548173ffffffffffffffffffffffffffffffffffffffff021916908373ffffffffffffffffffffffffffffffffffffffff16021790555050620002a3565b6000600160009054906101000a900473ffffffffffffffffffffffffffffffffffffffff16905081600160006101000a81548173ffffffffffffffffffffffffffffffffffffffff021916908373ffffffffffffffffffffffffffffffffffffffff1602179055508173ffffffffffffffffffffffffffffffffffffffff168173ffffffffffffffffffffffffffffffffffffffff167f8be0079c531659141344cd1fd0a4f28419497f9722a3daafe3b4186f6b6457e060405160405180910390a35050565b600080fd5b600073ffffffffffffffffffffffffffffffffffffffff82169050919050565b60006200020b82620001de565b9050919050565b6200021d81620001fe565b81146200022957600080fd5b50565b6000815190506200023d8162000212565b92915050565b6000602082840312156200025c576200025b620001d9565b5b60006200026c848285016200022c565b91505092915050565b6200028081620001fe565b82525050565b60006020820190506200029d600083018462000275565b92915050565b61341680620002b36000396000f3fe608060405234801561001057600080fd5b50600436106101585760003560e01c806393e30633116100c3578063d8aed1451161007c578063d8aed145146103cf578063d8bad5bd146103eb578063e503bb0514610421578063f2fde38b14610451578063f3fef3a31461046d578063fdce86431461048957610158565b806393e30633146102e75780639c89a0e214610303578063ac165d7a14610333578063af85e1d514610351578063d028053914610381578063d4dfadbf1461039d57610158565b806358caa5b71161011557806358caa5b7146102215780635cffe9de1461023f57806368c4ac261461025b578063715018a61461028b5780638da5cb5b146102955780638e8f294b146102b357610158565b80633574d4c41461015d578063436d80391461017b57806343fde94d146101ab57806347e7ef24146101c95780634847cdc8146101e55780635696b18914610203575b600080fd5b6101656104b9565b6040516101729190612570565b60405180910390f35b610195600480360381019061019091906125f3565b6104bf565b6040516101a29190612570565b60405180910390f35b6101b36104e4565b6040516101c09190612570565b60405180910390f35b6101e360048036038101906101de919061265f565b6104ea565b005b6101ed610754565b6040516101fa9190612570565b60405180910390f35b61020b61075a565b6040516102189190612570565b60405180910390f35b610229610760565b6040516102369190612570565b60405180910390f35b61025960048036038101906102549190612704565b610766565b005b6102756004803603810190610270919061278c565b610b6c565b60405161028291906127d4565b60405180910390f35b610293610b8c565b005b61029d610ba0565b6040516102aa91906127fe565b60405180910390f35b6102cd60048036038101906102c8919061278c565b610bca565b6040516102de959493929190612819565b60405180910390f35b61030160048036038101906102fc919061278c565b610c00565b005b61031d6004803603810190610318919061278c565b610e06565b60405161032a9190612570565b60405180910390f35b61033b610e4f565b60405161034891906128cb565b60405180910390f35b61036b6004803603810190610366919061278c565b610e75565b6040516103789190612570565b60405180910390f35b61039b600480360381019061039691906128e6565b610e8d565b005b6103b760048036038101906103b2919061278c565b611457565b6040516103c69392919061294d565b60405180910390f35b6103e960048036038101906103e49190612984565b6114fc565b005b6104056004803603810190610400919061265f565b61189e565b60405161041897969594939291906129c4565b60405180910390f35b61043b6004803603810190610436919061278c565b61193a565b6040516104489190612570565b60405180910390f35b61046b6004803603810190610466919061278c565b611952565b005b6104876004803603810190610482919061265f565b6119d8565b005b6104a3600480360381019061049e919061278c565b611d82565b6040516104b09190612570565b60405180910390f35b61044c81565b6003602052816000526040600020602052806000526040600020600091509150505481565b61044c81565b6104f2611e5b565b600760008373ffffffffffffffffffffffffffffffffffffffff1673ffffffffffffffffffffffffffffffffffffffff16815260200190815260200160002060009054906101000a900460ff1661057e576040517f08c379a000000000000000000000000000000000000000000000000000000000815260040161057590612a90565b60405180910390fd5b600081116105c1576040517f08c379a00000000000000000000000000000000000000000000000000000000081526004016105b890612afc565b60405180910390fd5b6105ca82611ea1565b6105f73330838573ffffffffffffffffffffffffffffffffffffffff16612069909392919063ffffffff16565b80600360003373ffffffffffffffffffffffffffffffffffffffff1673ffffffffffffffffffffffffffffffffffffffff16815260200190815260200160002060008473ffffffffffffffffffffffffffffffffffffffff1673ffffffffffffffffffffffffffffffffffffffff16815260200190815260200160002060008282546106839190612b4b565b9250508190555080600260008473ffffffffffffffffffffffffffffffffffffffff1673ffffffffffffffffffffffffffffffffffffffff16815260200190815260200160002060000160008282546106dc9190612b4b565b925050819055508173ffffffffffffffffffffffffffffffffffffffff163373ffffffffffffffffffffffffffffffffffffffff167f5548c837ab068cf56a2c2479df0882a4922fd203edb7517321831d95078c5f62836040516107409190612570565b60405180910390a36107506120eb565b5050565b60095481565b611d4c81565b61271081565b61076e611e5b565b600760008573ffffffffffffffffffffffffffffffffffffffff1673ffffffffffffffffffffffffffffffffffffffff16815260200190815260200160002060009054906101000a900460ff166107fa576040517f08c379a00000000000000000000000000000000000000000000000000000000081526004016107f190612a90565b60405180910390fd5b6000831161083d576040517f08c379a000000000000000000000000000000000000000000000000000000000815260040161083490612afc565b60405180910390fd5b60008473ffffffffffffffffffffffffffffffffffffffff166370a08231306040518263ffffffff1660e01b815260040161087891906127fe565b602060405180830381865afa158015610895573d6000803e3d6000fd5b505050506040513d601f19601f820116820180604052508101906108b99190612b94565b9050838110156108fe576040517f08c379a00000000000000000000000000000000000000000000000000000000081526004016108f590612c0d565b60405180910390fd5b6000612710600954866109119190612c2d565b61091b9190612c9e565b90506000818661092b9190612b4b565b905061095888878973ffffffffffffffffffffffffffffffffffffffff166120f59092919063ffffffff16565b8773ffffffffffffffffffffffffffffffffffffffff1663ee87255888888589896040518663ffffffff1660e01b8152600401610999959493929190612d2d565b6020604051808303816000875af11580156109b8573d6000803e3d6000fd5b505050506040513d601f19601f820116820180604052508101906109dc9190612da7565b610a1b576040517f08c379a0000000000000000000000000000000000000000000000000000000008152600401610a1290612e20565b60405180910390fd5b60008773ffffffffffffffffffffffffffffffffffffffff166370a08231306040518263ffffffff1660e01b8152600401610a5691906127fe565b602060405180830381865afa158015610a73573d6000803e3d6000fd5b505050506040513d601f19601f82011682018060405250810190610a979190612b94565b90508284610aa59190612b4b565b811015610ae7576040517f08c379a0000000000000000000000000000000000000000000000000000000008152600401610ade90612e8c565b60405180910390fd5b610af2896003612174565b8773ffffffffffffffffffffffffffffffffffffffff168973ffffffffffffffffffffffffffffffffffffffff167f0d7d75e01ab95780d3cd1c8ec0dd6c2ce19e3a20427eec8bf53283b6fb8e95f08986604051610b51929190612eac565b60405180910390a350505050610b656120eb565b5050505050565b60076020528060005260406000206000915054906101000a900460ff1681565b610b94612360565b610b9e60006123e7565b565b6000600160009054906101000a900473ffffffffffffffffffffffffffffffffffffffff16905090565b60026020528060005260406000206000915090508060000154908060010154908060020154908060030154908060040154905085565b610c08612360565b600073ffffffffffffffffffffffffffffffffffffffff168173ffffffffffffffffffffffffffffffffffffffff1603610c77576040517f08c379a0000000000000000000000000000000000000000000000000000000008152600401610c6e90612f21565b60405180910390fd5b600760008273ffffffffffffffffffffffffffffffffffffffff1673ffffffffffffffffffffffffffffffffffffffff16815260200190815260200160002060009054906101000a900460ff1615610d04576040517f08c379a0000000000000000000000000000000000000000000000000000000008152600401610cfb90612f8d565b60405180910390fd5b6001600760008373ffffffffffffffffffffffffffffffffffffffff1673ffffffffffffffffffffffffffffffffffffffff16815260200190815260200160002060006101000a81548160ff0219169083151502179055506040518060a0016040528060008152602001600081526020016103e88152602001438152602001670de0b6b3a7640000815250600260008373ffffffffffffffffffffffffffffffffffffffff1673ffffffffffffffffffffffffffffffffffffffff168152602001908152602001600020600082015181600001556020820151816001015560408201518160020155606082015181600301556080820151816004015590505050565b6000600660008373ffffffffffffffffffffffffffffffffffffffff1673ffffffffffffffffffffffffffffffffffffffff168152602001908152602001600020549050919050565b600860009054906101000a900473ffffffffffffffffffffffffffffffffffffffff1681565b60056020528060005260406000206000915090505481565b610e95611e5b565b600760008573ffffffffffffffffffffffffffffffffffffffff1673ffffffffffffffffffffffffffffffffffffffff16815260200190815260200160002060009054906101000a900460ff16610f21576040517f08c379a0000000000000000000000000000000000000000000000000000000008152600401610f1890612ff9565b60405180910390fd5b600760008373ffffffffffffffffffffffffffffffffffffffff1673ffffffffffffffffffffffffffffffffffffffff16815260200190815260200160002060009054906101000a900460ff16610fad576040517f08c379a0000000000000000000000000000000000000000000000000000000008152600401610fa490613065565b60405180910390fd5b60008111610ff0576040517f08c379a0000000000000000000000000000000000000000000000000000000008152600401610fe790612afc565b60405180910390fd5b610ff982611ea1565b6000612710611d4c8561100c9190612c2d565b6110169190612c9e565b90508082111561105b576040517f08c379a0000000000000000000000000000000000000000000000000000000008152600401611052906130d1565b60405180910390fd5b6110883330868873ffffffffffffffffffffffffffffffffffffffff16612069909392919063ffffffff16565b6000600560003373ffffffffffffffffffffffffffffffffffffffff1673ffffffffffffffffffffffffffffffffffffffff168152602001908152602001600020549050600560003373ffffffffffffffffffffffffffffffffffffffff1673ffffffffffffffffffffffffffffffffffffffff168152602001908152602001600020600081548092919061111c906130f1565b91905055506000600860009054906101000a900473ffffffffffffffffffffffffffffffffffffffff1673ffffffffffffffffffffffffffffffffffffffff1663d71275f6866040518263ffffffff1660e01b815260040161117e91906127fe565b602060405180830381865afa15801561119b573d6000803e3d6000fd5b505050506040513d601f19601f820116820180604052508101906111bf9190612b94565b90506040518060e001604052808581526020018781526020018873ffffffffffffffffffffffffffffffffffffffff1681526020018673ffffffffffffffffffffffffffffffffffffffff16815260200182815260200143815260200160011515815250600460003373ffffffffffffffffffffffffffffffffffffffff1673ffffffffffffffffffffffffffffffffffffffff1681526020019081526020016000206000848152602001908152602001600020600082015181600001556020820151816001015560408201518160020160006101000a81548173ffffffffffffffffffffffffffffffffffffffff021916908373ffffffffffffffffffffffffffffffffffffffff16021790555060608201518160030160006101000a81548173ffffffffffffffffffffffffffffffffffffffff021916908373ffffffffffffffffffffffffffffffffffffffff1602179055506080820151816004015560a0820151816005015560c08201518160060160006101000a81548160ff02191690831515021790555090505083600260008773ffffffffffffffffffffffffffffffffffffffff1673ffffffffffffffffffffffffffffffffffffffff168152602001908152602001600020600101600082825461139e9190612b4b565b925050819055506113d033858773ffffffffffffffffffffffffffffffffffffffff166120f59092919063ffffffff16565b6113db336005612174565b8473ffffffffffffffffffffffffffffffffffffffff163373ffffffffffffffffffffffffffffffffffffffff167f3b0c8614fdd4fc00bbbb478e8263105e5758369866c8e07e9bcd2508648cb77f84878b8b60405161143e9493929190613139565b60405180910390a35050506114516120eb565b50505050565b600080600080600260008673ffffffffffffffffffffffffffffffffffffffff1673ffffffffffffffffffffffffffffffffffffffff1681526020019081526020016000206040518060a0016040529081600082015481526020016001820154815260200160028201548152602001600382015481526020016004820154815250509050806000015181602001516114ee87611d82565b935093509350509193909250565b611504611e5b565b6000600460003373ffffffffffffffffffffffffffffffffffffffff1673ffffffffffffffffffffffffffffffffffffffff168152602001908152602001600020600084815260200190815260200160002090508060060160009054906101000a900460ff166115a9576040517f08c379a00000000000000000000000000000000000000000000000000000000081526004016115a0906131ca565b60405180910390fd5b600082116115ec576040517f08c379a00000000000000000000000000000000000000000000000000000000081526004016115e390612afc565b60405180910390fd5b6116198160030160009054906101000a900473ffffffffffffffffffffffffffffffffffffffff16611ea1565b600081600501544361162b91906131ea565b905060006a01bd3355164f678200000082846004015485600001546116509190612c2d565b61165a9190612c2d565b6116649190612c9e565b905060008184600001546116789190612b4b565b9050808511156116bd576040517f08c379a00000000000000000000000000000000000000000000000000000000081526004016116b49061326a565b60405180910390fd5b61170e3330878760030160009054906101000a900473ffffffffffffffffffffffffffffffffffffffff1673ffffffffffffffffffffffffffffffffffffffff16612069909392919063ffffffff16565b8484600001600082825461172291906131ea565b9250508190555084600260008660030160009054906101000a900473ffffffffffffffffffffffffffffffffffffffff1673ffffffffffffffffffffffffffffffffffffffff1673ffffffffffffffffffffffffffffffffffffffff168152602001908152602001600020600101600082825461179f91906131ea565b9250508190555060008460000154036118325760008460060160006101000a81548160ff0219169083151502179055506118223385600101548660020160009054906101000a900473ffffffffffffffffffffffffffffffffffffffff1673ffffffffffffffffffffffffffffffffffffffff166120f59092919063ffffffff16565b61182d33600a612174565b61183e565b61183d336002612174565b5b3373ffffffffffffffffffffffffffffffffffffffff167f77c6871227e5d2dec8dadd5354f78453203e22e669cd0ec4c19d9a8c5edb31d08787604051611886929190612eac565b60405180910390a25050505061189a6120eb565b5050565b6004602052816000526040600020602052806000526040600020600091509150508060000154908060010154908060020160009054906101000a900473ffffffffffffffffffffffffffffffffffffffff16908060030160009054906101000a900473ffffffffffffffffffffffffffffffffffffffff16908060040154908060050154908060060160009054906101000a900460ff16905087565b60066020528060005260406000206000915090505481565b61195a612360565b600073ffffffffffffffffffffffffffffffffffffffff168173ffffffffffffffffffffffffffffffffffffffff16036119cc5760006040517f1e4fbdf70000000000000000000000000000000000000000000000000000000081526004016119c391906127fe565b60405180910390fd5b6119d5816123e7565b50565b6119e0611e5b565b80600360003373ffffffffffffffffffffffffffffffffffffffff1673ffffffffffffffffffffffffffffffffffffffff16815260200190815260200160002060008473ffffffffffffffffffffffffffffffffffffffff1673ffffffffffffffffffffffffffffffffffffffff168152602001908152602001600020541015611a9f576040517f08c379a0000000000000000000000000000000000000000000000000000000008152600401611a96906132d6565b60405180910390fd5b60008111611ae2576040517f08c379a0000000000000000000000000000000000000000000000000000000008152600401611ad990612afc565b60405180910390fd5b611aeb82611ea1565b6000600260008473ffffffffffffffffffffffffffffffffffffffff1673ffffffffffffffffffffffffffffffffffffffff168152602001908152602001600020600101548373ffffffffffffffffffffffffffffffffffffffff166370a08231306040518263ffffffff1660e01b8152600401611b6991906127fe565b602060405180830381865afa158015611b86573d6000803e3d6000fd5b505050506040513d601f19601f82011682018060405250810190611baa9190612b94565b611bb491906131ea565b905081811015611bf9576040517f08c379a0000000000000000000000000000000000000000000000000000000008152600401611bf090612c0d565b60405180910390fd5b81600360003373ffffffffffffffffffffffffffffffffffffffff1673ffffffffffffffffffffffffffffffffffffffff16815260200190815260200160002060008573ffffffffffffffffffffffffffffffffffffffff1673ffffffffffffffffffffffffffffffffffffffff1681526020019081526020016000206000828254611c8591906131ea565b9250508190555081600260008573ffffffffffffffffffffffffffffffffffffffff1673ffffffffffffffffffffffffffffffffffffffff1681526020019081526020016000206000016000828254611cde91906131ea565b92505081905550611d1033838573ffffffffffffffffffffffffffffffffffffffff166120f59092919063ffffffff16565b8273ffffffffffffffffffffffffffffffffffffffff163373ffffffffffffffffffffffffffffffffffffffff167f9b1bfa7fa9ee420a16e124f794c35ac9f90472acc99140eb2f6447c714cad8eb84604051611d6d9190612570565b60405180910390a350611d7e6120eb565b5050565b600080600260008473ffffffffffffffffffffffffffffffffffffffff1673ffffffffffffffffffffffffffffffffffffffff1681526020019081526020016000206040518060a0016040529081600082015481526020016001820154815260200160028201548152602001600382015481526020016004820154815250509050600081602001518260000151611e199190612b4b565b905060008103611e2e57600092505050611e56565b80670de0b6b3a76400008360200151611e479190612c2d565b611e519190612c9e565b925050505b919050565b600260005403611e97576040517f3ee5aeb500000000000000000000000000000000000000000000000000000000815260040160405180910390fd5b6002600081905550565b6000600260008373ffffffffffffffffffffffffffffffffffffffff1673ffffffffffffffffffffffffffffffffffffffff168152602001908152602001600020905043816003015403611ef55750612066565b6000600860009054906101000a900473ffffffffffffffffffffffffffffffffffffffff1673ffffffffffffffffffffffffffffffffffffffff1663d71275f6846040518263ffffffff1660e01b8152600401611f5291906127fe565b602060405180830381865afa158015611f6f573d6000803e3d6000fd5b505050506040513d601f19601f82011682018060405250810190611f939190612b94565b90506000826003015443611fa791906131ea565b905060006a01bd3355164f678200000082848660010154611fc89190612c2d565b611fd29190612c2d565b611fdc9190612c9e565b905080846001016000828254611ff29190612b4b565b92505081905550670de0b6b3a76400006a01bd3355164f6782000000838561201a9190612c2d565b6120249190612c9e565b670de0b6b3a76400006120379190612b4b565b85600401546120469190612c2d565b6120509190612c9e565b8460040181905550438460030181905550505050505b50565b6120e5848573ffffffffffffffffffffffffffffffffffffffff166323b872dd86868660405160240161209e939291906132f6565b604051602081830303815290604052915060e01b6020820180517bffffffffffffffffffffffffffffffffffffffffffffffffffffffff83818316178352505050506124ad565b50505050565b6001600081905550565b61216f838473ffffffffffffffffffffffffffffffffffffffff1663a9059cbb858560405160240161212892919061332d565b604051602081830303815290604052915060e01b6020820180517bffffffffffffffffffffffffffffffffffffffffffffffffffffffff83818316178352505050506124ad565b505050565b6000600660008473ffffffffffffffffffffffffffffffffffffffff1673ffffffffffffffffffffffffffffffffffffffff168152602001908152602001600020549050600082131561221c5781600660008573ffffffffffffffffffffffffffffffffffffffff1673ffffffffffffffffffffffffffffffffffffffff16815260200190815260200160002060008282546122109190612b4b565b925050819055506122cc565b8161222690613360565b600660008573ffffffffffffffffffffffffffffffffffffffff1673ffffffffffffffffffffffffffffffffffffffff16815260200190815260200160002054106122cb578161227590613360565b600660008573ffffffffffffffffffffffffffffffffffffffff1673ffffffffffffffffffffffffffffffffffffffff16815260200190815260200160002060008282546122c391906131ea565b925050819055505b5b8273ffffffffffffffffffffffffffffffffffffffff167f5712e29af9e0cda36f7084338830170ccb1f1c4986d27fc1d51d1f53562b9e6683600660008773ffffffffffffffffffffffffffffffffffffffff1673ffffffffffffffffffffffffffffffffffffffff168152602001908152602001600020546040516123539291906133b7565b60405180910390a2505050565b61236861254f565b73ffffffffffffffffffffffffffffffffffffffff16612386610ba0565b73ffffffffffffffffffffffffffffffffffffffff16146123e5576123a961254f565b6040517f118cdaa70000000000000000000000000000000000000000000000000000000081526004016123dc91906127fe565b60405180910390fd5b565b6000600160009054906101000a900473ffffffffffffffffffffffffffffffffffffffff16905081600160006101000a81548173ffffffffffffffffffffffffffffffffffffffff021916908373ffffffffffffffffffffffffffffffffffffffff1602179055508173ffffffffffffffffffffffffffffffffffffffff168173ffffffffffffffffffffffffffffffffffffffff167f8be0079c531659141344cd1fd0a4f28419497f9722a3daafe3b4186f6b6457e060405160405180910390a35050565b600080602060008451602086016000885af1806124d0576040513d6000823e3d81fd5b3d9250600051915050600082146124eb576001811415612507565b60008473ffffffffffffffffffffffffffffffffffffffff163b145b1561254957836040517f5274afe700000000000000000000000000000000000000000000000000000000815260040161254091906127fe565b60405180910390fd5b50505050565b600033905090565b6000819050919050565b61256a81612557565b82525050565b60006020820190506125856000830184612561565b92915050565b600080fd5b600080fd5b600073ffffffffffffffffffffffffffffffffffffffff82169050919050565b60006125c082612595565b9050919050565b6125d0816125b5565b81146125db57600080fd5b50565b6000813590506125ed816125c7565b92915050565b6000806040838503121561260a5761260961258b565b5b6000612618858286016125de565b9250506020612629858286016125de565b9150509250929050565b61263c81612557565b811461264757600080fd5b50565b60008135905061265981612633565b92915050565b600080604083850312156126765761267561258b565b5b6000612684858286016125de565b92505060206126958582860161264a565b9150509250929050565b600080fd5b600080fd5b600080fd5b60008083601f8401126126c4576126c361269f565b5b8235905067ffffffffffffffff8111156126e1576126e06126a4565b5b6020830191508360018202830111156126fd576126fc6126a9565b5b9250929050565b6000806000806000608086880312156127205761271f61258b565b5b600061272e888289016125de565b955050602061273f888289016125de565b94505060406127508882890161264a565b935050606086013567ffffffffffffffff81111561277157612770612590565b5b61277d888289016126ae565b92509250509295509295909350565b6000602082840312156127a2576127a161258b565b5b60006127b0848285016125de565b91505092915050565b60008115159050919050565b6127ce816127b9565b82525050565b60006020820190506127e960008301846127c5565b92915050565b6127f8816125b5565b82525050565b600060208201905061281360008301846127ef565b92915050565b600060a08201905061282e6000830188612561565b61283b6020830187612561565b6128486040830186612561565b6128556060830185612561565b6128626080830184612561565b9695505050505050565b6000819050919050565b600061289161288c61288784612595565b61286c565b612595565b9050919050565b60006128a382612876565b9050919050565b60006128b582612898565b9050919050565b6128c5816128aa565b82525050565b60006020820190506128e060008301846128bc565b92915050565b60008060008060808587031215612900576128ff61258b565b5b600061290e878288016125de565b945050602061291f8782880161264a565b9350506040612930878288016125de565b92505060606129418782880161264a565b91505092959194509250565b60006060820190506129626000830186612561565b61296f6020830185612561565b61297c6040830184612561565b949350505050565b6000806040838503121561299b5761299a61258b565b5b60006129a98582860161264a565b92505060206129ba8582860161264a565b9150509250929050565b600060e0820190506129d9600083018a612561565b6129e66020830189612561565b6129f360408301886127ef565b612a0060608301876127ef565b612a0d6080830186612561565b612a1a60a0830185612561565b612a2760c08301846127c5565b98975050505050505050565b600082825260208201905092915050565b7f546f6b656e206e6f7420737570706f7274656400000000000000000000000000600082015250565b6000612a7a601383612a33565b9150612a8582612a44565b602082019050919050565b60006020820190508181036000830152612aa981612a6d565b9050919050565b7f416d6f756e74206d757374206265203e20300000000000000000000000000000600082015250565b6000612ae6601283612a33565b9150612af182612ab0565b602082019050919050565b60006020820190508181036000830152612b1581612ad9565b9050919050565b7f4e487b7100000000000000000000000000000000000000000000000000000000600052601160045260246000fd5b6000612b5682612557565b9150612b6183612557565b9250828201905080821115612b7957612b78612b1c565b5b92915050565b600081519050612b8e81612633565b92915050565b600060208284031215612baa57612ba961258b565b5b6000612bb884828501612b7f565b91505092915050565b7f496e73756666696369656e74206c697175696469747900000000000000000000600082015250565b6000612bf7601683612a33565b9150612c0282612bc1565b602082019050919050565b60006020820190508181036000830152612c2681612bea565b9050919050565b6000612c3882612557565b9150612c4383612557565b9250828202612c5181612557565b91508282048414831517612c6857612c67612b1c565b5b5092915050565b7f4e487b7100000000000000000000000000000000000000000000000000000000600052601260045260246000fd5b6000612ca982612557565b9150612cb483612557565b925082612cc457612cc3612c6f565b5b828204905092915050565b600082825260208201905092915050565b82818337600083830152505050565b6000601f19601f8301169050919050565b6000612d0c8385612ccf565b9350612d19838584612ce0565b612d2283612cef565b840190509392505050565b6000608082019050612d4260008301886127ef565b612d4f6020830187612561565b612d5c6040830186612561565b8181036060830152612d6f818486612d00565b90509695505050505050565b612d84816127b9565b8114612d8f57600080fd5b50565b600081519050612da181612d7b565b92915050565b600060208284031215612dbd57612dbc61258b565b5b6000612dcb84828501612d92565b91505092915050565b7f466c617368206c6f616e2063616c6c6261636b206661696c6564000000000000600082015250565b6000612e0a601a83612a33565b9150612e1582612dd4565b602082019050919050565b60006020820190508181036000830152612e3981612dfd565b9050919050565b7f466c617368206c6f616e206e6f74207265706169640000000000000000000000600082015250565b6000612e76601583612a33565b9150612e8182612e40565b602082019050919050565b60006020820190508181036000830152612ea581612e69565b9050919050565b6000604082019050612ec16000830185612561565b612ece6020830184612561565b9392505050565b7f496e76616c696420746f6b656e00000000000000000000000000000000000000600082015250565b6000612f0b600d83612a33565b9150612f1682612ed5565b602082019050919050565b60006020820190508181036000830152612f3a81612efe565b9050919050565b7f4d61726b65742065786973747300000000000000000000000000000000000000600082015250565b6000612f77600d83612a33565b9150612f8282612f41565b602082019050919050565b60006020820190508181036000830152612fa681612f6a565b9050919050565b7f436f6c6c61746572616c20746f6b656e206e6f7420737570706f727465640000600082015250565b6000612fe3601e83612a33565b9150612fee82612fad565b602082019050919050565b6000602082019050818103600083015261301281612fd6565b9050919050565b7f426f72726f7720746f6b656e206e6f7420737570706f72746564000000000000600082015250565b600061304f601a83612a33565b915061305a82613019565b602082019050919050565b6000602082019050818103600083015261307e81613042565b9050919050565b7f45786365656473204c5456206c696d6974000000000000000000000000000000600082015250565b60006130bb601183612a33565b91506130c682613085565b602082019050919050565b600060208201905081810360008301526130ea816130ae565b9050919050565b60006130fc82612557565b91507fffffffffffffffffffffffffffffffffffffffffffffffffffffffffffffffff820361312e5761312d612b1c565b5b600182019050919050565b600060808201905061314e6000830187612561565b61315b6020830186612561565b61316860408301856127ef565b6131756060830184612561565b95945050505050565b7f4c6f616e206e6f74206163746976650000000000000000000000000000000000600082015250565b60006131b4600f83612a33565b91506131bf8261317e565b602082019050919050565b600060208201905081810360008301526131e3816131a7565b9050919050565b60006131f582612557565b915061320083612557565b925082820390508181111561321857613217612b1c565b5b92915050565b7f526570617920616d6f756e742065786365656473206465627400000000000000600082015250565b6000613254601983612a33565b915061325f8261321e565b602082019050919050565b6000602082019050818103600083015261328381613247565b9050919050565b7f496e73756666696369656e742062616c616e6365000000000000000000000000600082015250565b60006132c0601483612a33565b91506132cb8261328a565b602082019050919050565b600060208201905081810360008301526132ef816132b3565b9050919050565b600060608201905061330b60008301866127ef565b61331860208301856127ef565b6133256040830184612561565b949350505050565b600060408201905061334260008301856127ef565b61334f6020830184612561565b9392505050565b6000819050919050565b600061336b82613356565b91507f8000000000000000000000000000000000000000000000000000000000000000820361339d5761339c612b1c565b5b816000039050919050565b6133b181613356565b82525050565b60006040820190506133cc60008301856133a8565b6133d96020830184612561565b939250505056fea26469706673582212205a78ca232d4b3756bd16285b5a617d4cad0c40a1a5ed0a917d5dd5d8c9674acc64736f6c63430008140033",
  "linkReferences": {},
  "deployedLinkReferences": {}
}